{"project/contracts/MedicalRecordTransfer.sol":{"MedicalRecordTransfer":{"abi":[{"inputs":[{"internalType":"address","name":"_medicalRecordsAddress","type":"address"}],"stateMutability":"nonpayable","type":"constructor"},{"anonymous":false,"inputs":[{"indexed":true,"internalType":"bytes32","name":"requestId","type":"bytes32"},{"indexed":true,"internalType":"address","name":"fromPatient","type":"address"},{"indexed":true,"internalType":"address","name":"toRecipient","type":"address"},{"indexed":false,"internalType":"uint256","name":"approvedAt","type":"uint256"}],"name":"TransferApproved","type":"event"},{"anonymous":false,"inputs":[{"indexed":true,"internalType":"bytes32","name":"requestId","type":"bytes32"},{"indexed":true,"internalType":"address","name":"fromPatient","type":"address"},{"indexed":true,"internalType":"address","name":"toRecipient","type":"address"},{"indexed":false,"internalType":"uint256","name":"completedAt","type":"uint256"}],"name":"TransferCompleted","type":"event"},{"anonymous":false,"inputs":[{"indexed":true,"internalType":"bytes32","name":"requestId","type":"bytes32"},{"indexed":true,"internalType":"address","name":"fromPatient","type":"address"},{"indexed":true,"internalType":"address","name":"toRecipient","type":"address"},{"indexed":false,"internalType":"uint256","name":"rejectedAt","type":"uint256"}],"name":"TransferRejected","type":"event"},{"anonymous":false,"inputs":[{"indexed":true,"internalType":"bytes32","name":"requestId","type":"bytes32"},{"indexed":true,"internalType":"address","name":"fromPatient","type":"address"},{"indexed":true,"internalType":"address","name":"toRecipient","type":"address"},{"indexed":false,"internalType":"string[]","name":"ipfsCids","type":"string[]"},{"indexed":false,"internalType":"uint256","name":"timestamp","type":"uint256"},{"indexed":false,"internalType":"string","name":"purpose","type":"string"},{"indexed":false,"internalType":"uint256","name":"expiry","type":"uint256"}],"name":"TransferRequested","type":"event"},{"inputs":[{"internalType":"bytes32","name":"_requestId","type":"bytes32"}],"name":"approveTransfer","outputs":[],"stateMutability":"nonpayable","type":"function"},{"inputs":[{"internalType":"bytes32","name":"_requestId","type":"bytes32"}],"name":"completeTransfer","outputs":[],"stateMutability":"nonpayable","type":"function"},{"inputs":[{"internalType":"address","name":"_patient","type":"address"}],"name":"getPatientRecords","outputs":[{"internalType":"string[]","name":"","type":"string[]"}],"stateMutability":"view","type":"function"},{"inputs":[{"internalType":"address","name":"_patient","type":"address"}],"name":"getPatientTransfers","outputs":[{"internalType":"bytes32[]","name":"","type":"bytes32[]"}],"stateMutability":"view","type":"function"},{"inputs":[{"internalType":"address","name":"_recipient","type":"address"}],"name":"getRecipientTransfers","outputs":[{"internalType":"bytes32[]","name":"","type":"bytes32[]"}],"stateMutability":"view","type":"function"},{"inputs":[{"internalType":"bytes32","name":"_requestId","type":"bytes32"}],"name":"getTransferRequest","outputs":[{"internalType":"address","name":"fromPatient","type":"address"},{"internalType":"address","name":"toRecipient","type":"address"},{"internalType":"string[]","name":"ipfsCids","type":"string[]"},{"internalType":"uint256","name":"timestamp","type":"uint256"},{"internalType":"bool","name":"completed","type":"bool"},{"internalType":"bool","name":"approved","type":"bool"},{"internalType":"string","name":"purpose","type":"string"},{"internalType":"uint256","name":"expiry","type":"uint256"}],"stateMutability":"view","type":"function"},{"inputs":[],"name":"medicalRecords","outputs":[{"internalType":"contract IMedicalRecords","name":"","type":"address"}],"stateMutability":"view","type":"function"},{"inputs":[{"internalType":"address","name":"","type":"address"},{"internalType":"uint256","name":"","type":"uint256"}],"name":"patientTransfers","outputs":[{"internalType":"bytes32","name":"","type":"bytes32"}],"stateMutability":"view","type":"function"},{"inputs":[{"internalType":"address","name":"","type":"address"},{"internalType":"uint256","name":"","type":"uint256"}],"name":"recipientTransfers","outputs":[{"internalType":"bytes32","name":"","type":"bytes32"}],"stateMutability":"view","type":"function"},{"inputs":[{"internalType":"bytes32","name":"_requestId","type":"bytes32"}],"name":"rejectTransfer","outputs":[],"stateMutability":"nonpayable","type":"function"},{"inputs":[{"internalType":"address","name":"_toRecipient","type":"address"},{"internalType":"string[]","name":"_ipfsCids","type":"string[]"},{"internalType":"string","name":"_purpose","type":"string"},{"internalType":"uint256","name":"_durationInHours","type":"uint256"}],"name":"requestTransfer","outputs":[{"internalType":"bytes32","name":"","type":"bytes32"}],"stateMutability":"nonpayable","type":"function"},{"inputs":[{"internalType":"bytes32","name":"","type":"bytes32"}],"name":"transferRequests","outputs":[{"internalType":"address","name":"fromPatient","type":"address"},{"internalType":"address","name":"toRecipient","type":"address"},{"internalType":"uint256","name":"timestamp","type":"uint256"},{"internalType":"bool","name":"completed","type":"bool"},{"internalType":"bool","name":"approved","type":"bool"},{"internalType":"string","name":"purpose","type":"string"},{"internalType":"uint256","name":"expiry","type":"uint256"}],"stateMutability":"view","type":"function"}],"evm":{"bytecode":{"linkReferences":{},"object":"608060405234801561001057600080fd5b50604051612ca9380380612ca98339818101604052810190610032919061014a565b600073ffffffffffffffffffffffffffffffffffffffff168173ffffffffffffffffffffffffffffffffffffffff16036100a1576040517f08c379a0000000000000000000000000000000000000000000000000000000008152600401610098906101d4565b60405180910390fd5b806000806101000a81548173ffffffffffffffffffffffffffffffffffffffff021916908373ffffffffffffffffffffffffffffffffffffffff160217905550506101f4565b600080fd5b600073ffffffffffffffffffffffffffffffffffffffff82169050919050565b6000610117826100ec565b9050919050565b6101278161010c565b811461013257600080fd5b50565b6000815190506101448161011e565b92915050565b6000602082840312156101605761015f6100e7565b5b600061016e84828501610135565b91505092915050565b600082825260208201905092915050565b7f496e76616c6964206d65646963616c207265636f726473206164647265737300600082015250565b60006101be601f83610177565b91506101c982610188565b602082019050919050565b600060208201905081810360008301526101ed816101b1565b9050919050565b612aa6806102036000396000f3fe608060405234801561001057600080fd5b50600436106100b45760003560e01c80639cb80f00116100715780639cb80f00146101cb578063a1febf81146101fb578063b33acaac14610217578063ba33984a14610235578063c8f3ac2a14610251578063de9b19df14610288576100b4565b806302aaefb0146100b957806304233456146100e957806318bd48471461011957806345067e7a146101495780637fbeb89c1461017957806397adc59a14610195575b600080fd5b6100d360048036038101906100ce9190611902565b6102b8565b6040516100e091906119ba565b60405180910390f35b61010360048036038101906100fe91906119d5565b6108c2565b6040516101109190611ac0565b60405180910390f35b610133600480360381019061012e91906119d5565b610959565b6040516101409190611c23565b60405180910390f35b610163600480360381019061015e9190611c45565b610a01565b60405161017091906119ba565b60405180910390f35b610193600480360381019061018e9190611cb1565b610a32565b005b6101af60048036038101906101aa9190611cb1565b610bfc565b6040516101c29796959493929190611d61565b60405180910390f35b6101e560048036038101906101e09190611c45565b610d20565b6040516101f291906119ba565b60405180910390f35b61021560048036038101906102109190611cb1565b610d51565b005b61021f610fb3565b60405161022c9190611e36565b60405180910390f35b61024f600480360381019061024a9190611cb1565b610fd7565b005b61026b60048036038101906102669190611cb1565b6111e8565b60405161027f989796959493929190611e51565b60405180910390f35b6102a2600480360381019061029d91906119d5565b6114bd565b6040516102af9190611ac0565b60405180910390f35b60008073ffffffffffffffffffffffffffffffffffffffff168573ffffffffffffffffffffffffffffffffffffffff1603610328576040517f08c379a000000000000000000000000000000000000000000000000000000000815260040161031f90611f29565b60405180910390fd5b3373ffffffffffffffffffffffffffffffffffffffff168573ffffffffffffffffffffffffffffffffffffffff1603610396576040517f08c379a000000000000000000000000000000000000000000000000000000000815260040161038d90611f95565b60405180910390fd5b60008451116103da576040517f08c379a00000000000000000000000000000000000000000000000000000000081526004016103d190612001565b60405180910390fd5b6000821180156103ec57506102d08211155b61042b576040517f08c379a000000000000000000000000000000000000000000000000000000000815260040161042290612093565b60405180910390fd5b60008060009054906101000a900473ffffffffffffffffffffffffffffffffffffffff1673ffffffffffffffffffffffffffffffffffffffff1663a0076e84336040518263ffffffff1660e01b815260040161048791906120b3565b600060405180830381865afa1580156104a4573d6000803e3d6000fd5b505050506040513d6000823e3d601f19601f820116820180604052508101906104cd91906121f3565b905060005b8551811015610596576000805b8351811015610547578381815181106104fb576104fa61223c565b5b60200260200101518051906020012088848151811061051d5761051c61223c565b5b6020026020010151805190602001200361053a5760019150610547565b80806001019150506104df565b5080610588576040517f08c379a000000000000000000000000000000000000000000000000000000000815260040161057f906122dd565b60405180910390fd5b5080806001019150506104d2565b506000338742886040516020016105b094939291906122fd565b6040516020818303038152906040528051906020012090506000610e10856105d89190612378565b426105e391906123ba565b90506040518061010001604052803373ffffffffffffffffffffffffffffffffffffffff1681526020018973ffffffffffffffffffffffffffffffffffffffff168152602001888152602001428152602001600015158152602001600015158152602001878152602001828152506001600084815260200190815260200160002060008201518160000160006101000a81548173ffffffffffffffffffffffffffffffffffffffff021916908373ffffffffffffffffffffffffffffffffffffffff16021790555060208201518160010160006101000a81548173ffffffffffffffffffffffffffffffffffffffff021916908373ffffffffffffffffffffffffffffffffffffffff160217905550604082015181600201908051906020019061070e929190611554565b506060820151816003015560808201518160040160006101000a81548160ff02191690831515021790555060a08201518160040160016101000a81548160ff02191690831515021790555060c082015181600501908161076e91906125f0565b5060e08201518160060155905050600260003373ffffffffffffffffffffffffffffffffffffffff1673ffffffffffffffffffffffffffffffffffffffff168152602001908152602001600020829080600181540180825580915050600190039060005260206000200160009091909190915055600360008973ffffffffffffffffffffffffffffffffffffffff1673ffffffffffffffffffffffffffffffffffffffff1681526020019081526020016000208290806001815401808255809150506001900390600052602060002001600090919091909150558773ffffffffffffffffffffffffffffffffffffffff163373ffffffffffffffffffffffffffffffffffffffff16837f1e736b114ba5c73428f3437dd06d1b6c420a79aa76fd1556281cfd118031e6618a428b876040516108ac94939291906126c2565b60405180910390a4819350505050949350505050565b6060600360008373ffffffffffffffffffffffffffffffffffffffff1673ffffffffffffffffffffffffffffffffffffffff16815260200190815260200160002080548060200260200160405190810160405280929190818152602001828054801561094d57602002820191906000526020600020905b815481526020019060010190808311610939575b50505050509050919050565b606060008054906101000a900473ffffffffffffffffffffffffffffffffffffffff1673ffffffffffffffffffffffffffffffffffffffff1663a0076e84836040518263ffffffff1660e01b81526004016109b491906120b3565b600060405180830381865afa1580156109d1573d6000803e3d6000fd5b505050506040513d6000823e3d601f19601f820116820180604052508101906109fa91906121f3565b9050919050565b60026020528160005260406000208181548110610a1d57600080fd5b90600052602060002001600091509150505481565b60006001600083815260200190815260200160002090503373ffffffffffffffffffffffffffffffffffffffff168160000160009054906101000a900473ffffffffffffffffffffffffffffffffffffffff1673ffffffffffffffffffffffffffffffffffffffff1614610adb576040517f08c379a0000000000000000000000000000000000000000000000000000000008152600401610ad290612761565b60405180910390fd5b8060040160009054906101000a900460ff1615610b2d576040517f08c379a0000000000000000000000000000000000000000000000000000000008152600401610b24906127cd565b60405180910390fd5b60018160040160006101000a81548160ff0219169083151502179055508060010160009054906101000a900473ffffffffffffffffffffffffffffffffffffffff1673ffffffffffffffffffffffffffffffffffffffff168160000160009054906101000a900473ffffffffffffffffffffffffffffffffffffffff1673ffffffffffffffffffffffffffffffffffffffff16837ff7193b55063b461e593969c16d95e6690ea93df45040ae8bca3790533c13552142604051610bf091906127ed565b60405180910390a45050565b60016020528060005260406000206000915090508060000160009054906101000a900473ffffffffffffffffffffffffffffffffffffffff16908060010160009054906101000a900473ffffffffffffffffffffffffffffffffffffffff16908060030154908060040160009054906101000a900460ff16908060040160019054906101000a900460ff1690806005018054610c979061241d565b80601f0160208091040260200160405190810160405280929190818152602001828054610cc39061241d565b8015610d105780601f10610ce557610100808354040283529160200191610d10565b820191906000526020600020905b815481529060010190602001808311610cf357829003601f168201915b5050505050908060060154905087565b60036020528160005260406000208181548110610d3c57600080fd5b90600052602060002001600091509150505481565b60006001600083815260200190815260200160002090503373ffffffffffffffffffffffffffffffffffffffff168160010160009054906101000a900473ffffffffffffffffffffffffffffffffffffffff1673ffffffffffffffffffffffffffffffffffffffff1614610dfa576040517f08c379a0000000000000000000000000000000000000000000000000000000008152600401610df19061287a565b60405180910390fd5b8060040160019054906101000a900460ff16610e4b576040517f08c379a0000000000000000000000000000000000000000000000000000000008152600401610e42906128e6565b60405180910390fd5b8060040160009054906101000a900460ff1615610e9d576040517f08c379a0000000000000000000000000000000000000000000000000000000008152600401610e94906127cd565b60405180910390fd5b8060060154421115610ee4576040517f08c379a0000000000000000000000000000000000000000000000000000000008152600401610edb90612952565b60405180910390fd5b60018160040160006101000a81548160ff0219169083151502179055508060010160009054906101000a900473ffffffffffffffffffffffffffffffffffffffff1673ffffffffffffffffffffffffffffffffffffffff168160000160009054906101000a900473ffffffffffffffffffffffffffffffffffffffff1673ffffffffffffffffffffffffffffffffffffffff16837fc9fca47377be101830420679b065fa8d4babf6d00e9e9f3ca9957e9e1702fcfb42604051610fa791906127ed565b60405180910390a45050565b60008054906101000a900473ffffffffffffffffffffffffffffffffffffffff1681565b60006001600083815260200190815260200160002090503373ffffffffffffffffffffffffffffffffffffffff168160000160009054906101000a900473ffffffffffffffffffffffffffffffffffffffff1673ffffffffffffffffffffffffffffffffffffffff1614611080576040517f08c379a0000000000000000000000000000000000000000000000000000000008152600401611077906129e4565b60405180910390fd5b8060040160019054906101000a900460ff16156110d2576040517f08c379a00000000000000000000000000000000000000000000000000000000081526004016110c990612a50565b60405180910390fd5b8060060154421115611119576040517f08c379a000000000000000000000000000000000000000000000000000000000815260040161111090612952565b60405180910390fd5b60018160040160016101000a81548160ff0219169083151502179055508060010160009054906101000a900473ffffffffffffffffffffffffffffffffffffffff1673ffffffffffffffffffffffffffffffffffffffff168160000160009054906101000a900473ffffffffffffffffffffffffffffffffffffffff1673ffffffffffffffffffffffffffffffffffffffff16837f221fdbc5fcb833eb1b03637aa88a8992624f3a3d52c8e4335a0e47717b8e3e19426040516111dc91906127ed565b60405180910390a45050565b600080606060008060006060600080600160008b8152602001908152602001600020604051806101000160405290816000820160009054906101000a900473ffffffffffffffffffffffffffffffffffffffff1673ffffffffffffffffffffffffffffffffffffffff1673ffffffffffffffffffffffffffffffffffffffff1681526020016001820160009054906101000a900473ffffffffffffffffffffffffffffffffffffffff1673ffffffffffffffffffffffffffffffffffffffff1673ffffffffffffffffffffffffffffffffffffffff16815260200160028201805480602002602001604051908101604052809291908181526020016000905b828210156113935783829060005260206000200180546113069061241d565b80601f01602080910402602001604051908101604052809291908181526020018280546113329061241d565b801561137f5780601f106113545761010080835404028352916020019161137f565b820191906000526020600020905b81548152906001019060200180831161136257829003601f168201915b5050505050815260200190600101906112e7565b505050508152602001600382015481526020016004820160009054906101000a900460ff161515151581526020016004820160019054906101000a900460ff161515151581526020016005820180546113eb9061241d565b80601f01602080910402602001604051908101604052809291908181526020018280546114179061241d565b80156114645780601f1061143957610100808354040283529160200191611464565b820191906000526020600020905b81548152906001019060200180831161144757829003601f168201915b505050505081526020016006820154815250509050806000015181602001518260400151836060015184608001518560a001518660c001518760e001519850985098509850985098509850985050919395975091939597565b6060600260008373ffffffffffffffffffffffffffffffffffffffff1673ffffffffffffffffffffffffffffffffffffffff16815260200190815260200160002080548060200260200160405190810160405280929190818152602001828054801561154857602002820191906000526020600020905b815481526020019060010190808311611534575b50505050509050919050565b82805482825590600052602060002090810192821561159c579160200282015b8281111561159b57825182908161158b91906125f0565b5091602001919060010190611574565b5b5090506115a991906115ad565b5090565b5b808211156115cd57600081816115c491906115d1565b506001016115ae565b5090565b5080546115dd9061241d565b6000825580601f106115ef575061160e565b601f01602090049060005260206000209081019061160d9190611611565b5b50565b5b8082111561162a576000816000905550600101611612565b5090565b6000604051905090565b600080fd5b600080fd5b600073ffffffffffffffffffffffffffffffffffffffff82169050919050565b600061166d82611642565b9050919050565b61167d81611662565b811461168857600080fd5b50565b60008135905061169a81611674565b92915050565b600080fd5b6000601f19601f8301169050919050565b7f4e487b7100000000000000000000000000000000000000000000000000000000600052604160045260246000fd5b6116ee826116a5565b810181811067ffffffffffffffff8211171561170d5761170c6116b6565b5b80604052505050565b600061172061162e565b905061172c82826116e5565b919050565b600067ffffffffffffffff82111561174c5761174b6116b6565b5b602082029050602081019050919050565b600080fd5b600080fd5b600067ffffffffffffffff821115611782576117816116b6565b5b61178b826116a5565b9050602081019050919050565b82818337600083830152505050565b60006117ba6117b584611767565b611716565b9050828152602081018484840111156117d6576117d5611762565b5b6117e1848285611798565b509392505050565b600082601f8301126117fe576117fd6116a0565b5b813561180e8482602086016117a7565b91505092915050565b600061182a61182584611731565b611716565b9050808382526020820190506020840283018581111561184d5761184c61175d565b5b835b8181101561189457803567ffffffffffffffff811115611872576118716116a0565b5b80860161187f89826117e9565b8552602085019450505060208101905061184f565b5050509392505050565b600082601f8301126118b3576118b26116a0565b5b81356118c3848260208601611817565b91505092915050565b6000819050919050565b6118df816118cc565b81146118ea57600080fd5b50565b6000813590506118fc816118d6565b92915050565b6000806000806080858703121561191c5761191b611638565b5b600061192a8782880161168b565b945050602085013567ffffffffffffffff81111561194b5761194a61163d565b5b6119578782880161189e565b935050604085013567ffffffffffffffff8111156119785761197761163d565b5b611984878288016117e9565b9250506060611995878288016118ed565b91505092959194509250565b6000819050919050565b6119b4816119a1565b82525050565b60006020820190506119cf60008301846119ab565b92915050565b6000602082840312156119eb576119ea611638565b5b60006119f98482850161168b565b91505092915050565b600081519050919050565b600082825260208201905092915050565b6000819050602082019050919050565b611a37816119a1565b82525050565b6000611a498383611a2e565b60208301905092915050565b6000602082019050919050565b6000611a6d82611a02565b611a778185611a0d565b9350611a8283611a1e565b8060005b83811015611ab3578151611a9a8882611a3d565b9750611aa583611a55565b925050600181019050611a86565b5085935050505092915050565b60006020820190508181036000830152611ada8184611a62565b905092915050565b600081519050919050565b600082825260208201905092915050565b6000819050602082019050919050565b600081519050919050565b600082825260208201905092915050565b60005b83811015611b48578082015181840152602081019050611b2d565b60008484015250505050565b6000611b5f82611b0e565b611b698185611b19565b9350611b79818560208601611b2a565b611b82816116a5565b840191505092915050565b6000611b998383611b54565b905092915050565b6000602082019050919050565b6000611bb982611ae2565b611bc38185611aed565b935083602082028501611bd585611afe565b8060005b85811015611c115784840389528151611bf28582611b8d565b9450611bfd83611ba1565b925060208a01995050600181019050611bd9565b50829750879550505050505092915050565b60006020820190508181036000830152611c3d8184611bae565b905092915050565b60008060408385031215611c5c57611c5b611638565b5b6000611c6a8582860161168b565b9250506020611c7b858286016118ed565b9150509250929050565b611c8e816119a1565b8114611c9957600080fd5b50565b600081359050611cab81611c85565b92915050565b600060208284031215611cc757611cc6611638565b5b6000611cd584828501611c9c565b91505092915050565b611ce781611662565b82525050565b611cf6816118cc565b82525050565b60008115159050919050565b611d1181611cfc565b82525050565b600082825260208201905092915050565b6000611d3382611b0e565b611d3d8185611d17565b9350611d4d818560208601611b2a565b611d56816116a5565b840191505092915050565b600060e082019050611d76600083018a611cde565b611d836020830189611cde565b611d906040830188611ced565b611d9d6060830187611d08565b611daa6080830186611d08565b81810360a0830152611dbc8185611d28565b9050611dcb60c0830184611ced565b98975050505050505050565b6000819050919050565b6000611dfc611df7611df284611642565b611dd7565b611642565b9050919050565b6000611e0e82611de1565b9050919050565b6000611e2082611e03565b9050919050565b611e3081611e15565b82525050565b6000602082019050611e4b6000830184611e27565b92915050565b600061010082019050611e67600083018b611cde565b611e74602083018a611cde565b8181036040830152611e868189611bae565b9050611e956060830188611ced565b611ea26080830187611d08565b611eaf60a0830186611d08565b81810360c0830152611ec18185611d28565b9050611ed060e0830184611ced565b9998505050505050505050565b7f496e76616c696420726563697069656e74206164647265737300000000000000600082015250565b6000611f13601983611d17565b9150611f1e82611edd565b602082019050919050565b60006020820190508181036000830152611f4281611f06565b9050919050565b7f43616e6e6f74207472616e7366657220746f20796f757273656c660000000000600082015250565b6000611f7f601b83611d17565b9150611f8a82611f49565b602082019050919050565b60006020820190508181036000830152611fae81611f72565b9050919050565b7f4e6f207265636f72647320737065636966696564000000000000000000000000600082015250565b6000611feb601483611d17565b9150611ff682611fb5565b602082019050919050565b6000602082019050818103600083015261201a81611fde565b9050919050565b7f4475726174696f6e206d757374206265206265747765656e203120616e64203760008201527f323020686f757273000000000000000000000000000000000000000000000000602082015250565b600061207d602883611d17565b915061208882612021565b604082019050919050565b600060208201905081810360008301526120ac81612070565b9050919050565b60006020820190506120c86000830184611cde565b92915050565b60006120e16120dc84611767565b611716565b9050828152602081018484840111156120fd576120fc611762565b5b612108848285611b2a565b509392505050565b600082601f830112612125576121246116a0565b5b81516121358482602086016120ce565b91505092915050565b600061215161214c84611731565b611716565b905080838252602082019050602084028301858111156121745761217361175d565b5b835b818110156121bb57805167ffffffffffffffff811115612199576121986116a0565b5b8086016121a68982612110565b85526020850194505050602081019050612176565b5050509392505050565b600082601f8301126121da576121d96116a0565b5b81516121ea84826020860161213e565b91505092915050565b60006020828403121561220957612208611638565b5b600082015167ffffffffffffffff8111156122275761222661163d565b5b612233848285016121c5565b91505092915050565b7f4e487b7100000000000000000000000000000000000000000000000000000000600052603260045260246000fd5b7f50617469656e7420646f6573206e6f74206f776e206f6e65206f72206d6f726560008201527f20737065636966696564207265636f7264730000000000000000000000000000602082015250565b60006122c7603283611d17565b91506122d28261226b565b604082019050919050565b600060208201905081810360008301526122f6816122ba565b9050919050565b60006080820190506123126000830187611cde565b61231f6020830186611cde565b61232c6040830185611ced565b818103606083015261233e8184611bae565b905095945050505050565b7f4e487b7100000000000000000000000000000000000000000000000000000000600052601160045260246000fd5b6000612383826118cc565b915061238e836118cc565b925082820261239c816118cc565b915082820484148315176123b3576123b2612349565b5b5092915050565b60006123c5826118cc565b91506123d0836118cc565b92508282019050808211156123e8576123e7612349565b5b92915050565b7f4e487b7100000000000000000000000000000000000000000000000000000000600052602260045260246000fd5b6000600282049050600182168061243557607f821691505b602082108103612448576124476123ee565b5b50919050565b60008190508160005260206000209050919050565b60006020601f8301049050919050565b600082821b905092915050565b6000600883026124b07fffffffffffffffffffffffffffffffffffffffffffffffffffffffffffffffff82612473565b6124ba8683612473565b95508019841693508086168417925050509392505050565b60006124ed6124e86124e3846118cc565b611dd7565b6118cc565b9050919050565b6000819050919050565b612507836124d2565b61251b612513826124f4565b848454612480565b825550505050565b600090565b612530612523565b61253b8184846124fe565b505050565b5b8181101561255f57612554600082612528565b600181019050612541565b5050565b601f8211156125a4576125758161244e565b61257e84612463565b8101602085101561258d578190505b6125a161259985612463565b830182612540565b50505b505050565b600082821c905092915050565b60006125c7600019846008026125a9565b1980831691505092915050565b60006125e083836125b6565b9150826002028217905092915050565b6125f982611b0e565b67ffffffffffffffff811115612612576126116116b6565b5b61261c825461241d565b612627828285612563565b600060209050601f83116001811461265a5760008415612648578287015190505b61265285826125d4565b8655506126ba565b601f1984166126688661244e565b60005b828110156126905784890151825560018201915060208501945060208101905061266b565b868310156126ad57848901516126a9601f8916826125b6565b8355505b6001600288020188555050505b505050505050565b600060808201905081810360008301526126dc8187611bae565b90506126eb6020830186611ced565b81810360408301526126fd8185611d28565b905061270c6060830184611ced565b95945050505050565b7f4f6e6c792070617469656e742063616e2072656a656374207472616e73666572600082015250565b600061274b602083611d17565b915061275682612715565b602082019050919050565b6000602082019050818103600083015261277a8161273e565b9050919050565b7f5472616e7366657220616c726561647920636f6d706c65746564000000000000600082015250565b60006127b7601a83611d17565b91506127c282612781565b602082019050919050565b600060208201905081810360008301526127e6816127aa565b9050919050565b60006020820190506128026000830184611ced565b92915050565b7f4f6e6c7920726563697069656e742063616e20636f6d706c657465207472616e60008201527f7366657200000000000000000000000000000000000000000000000000000000602082015250565b6000612864602483611d17565b915061286f82612808565b604082019050919050565b6000602082019050818103600083015261289381612857565b9050919050565b7f5472616e73666572206e6f7420617070726f7665642062792070617469656e74600082015250565b60006128d0602083611d17565b91506128db8261289a565b602082019050919050565b600060208201905081810360008301526128ff816128c3565b9050919050565b7f5472616e73666572207265717565737420657870697265640000000000000000600082015250565b600061293c601883611d17565b915061294782612906565b602082019050919050565b6000602082019050818103600083015261296b8161292f565b9050919050565b7f4f6e6c792070617469656e742063616e20617070726f7665207472616e73666560008201527f7200000000000000000000000000000000000000000000000000000000000000602082015250565b60006129ce602183611d17565b91506129d982612972565b604082019050919050565b600060208201905081810360008301526129fd816129c1565b9050919050565b7f5472616e7366657220616c726561647920617070726f76656400000000000000600082015250565b6000612a3a601983611d17565b9150612a4582612a04565b602082019050919050565b60006020820190508181036000830152612a6981612a2d565b905091905056fea26469706673582212203c50fea3a8816aaa1920389f126aa39e09d8684b4e9db23ba752a40e0a274be364736f6c634300081c0033","opcodes":"PUSH1 0x80 PUSH1 0x40 MSTORE CALLVALUE DUP1 ISZERO PUSH2 0x10 JUMPI PUSH1 0x0 DUP1 REVERT JUMPDEST POP PUSH1 0x40 MLOAD PUSH2 0x2CA9 CODESIZE SUB DUP1 PUSH2 0x2CA9 DUP4 CODECOPY DUP2 DUP2 ADD PUSH1 0x40 MSTORE DUP2 ADD SWAP1 PUSH2 0x32 SWAP2 SWAP1 PUSH2 0x14A JUMP JUMPDEST PUSH1 0x0 PUSH20 0xFFFFFFFFFFFFFFFFFFFFFFFFFFFFFFFFFFFFFFFF AND DUP2 PUSH20 0xFFFFFFFFFFFFFFFFFFFFFFFFFFFFFFFFFFFFFFFF AND SUB PUSH2 0xA1 JUMPI PUSH1 0x40 MLOAD PUSH32 0x8C379A000000000000000000000000000000000000000000000000000000000 DUP2 MSTORE PUSH1 0x4 ADD PUSH2 0x98 SWAP1 PUSH2 0x1D4 JUMP JUMPDEST PUSH1 0x40 MLOAD DUP1 SWAP2 SUB SWAP1 REVERT JUMPDEST DUP1 PUSH1 0x0 DUP1 PUSH2 0x100 EXP DUP2 SLOAD DUP2 PUSH20 0xFFFFFFFFFFFFFFFFFFFFFFFFFFFFFFFFFFFFFFFF MUL NOT AND SWAP1 DUP4 PUSH20 0xFFFFFFFFFFFFFFFFFFFFFFFFFFFFFFFFFFFFFFFF AND MUL OR SWAP1 SSTORE POP POP PUSH2 0x1F4 JUMP JUMPDEST PUSH1 0x0 DUP1 REVERT JUMPDEST PUSH1 0x0 PUSH20 0xFFFFFFFFFFFFFFFFFFFFFFFFFFFFFFFFFFFFFFFF DUP3 AND SWAP1 POP SWAP2 SWAP1 POP JUMP JUMPDEST PUSH1 0x0 PUSH2 0x117 DUP3 PUSH2 0xEC JUMP JUMPDEST SWAP1 POP SWAP2 SWAP1 POP JUMP JUMPDEST PUSH2 0x127 DUP2 PUSH2 0x10C JUMP JUMPDEST DUP2 EQ PUSH2 0x132 JUMPI PUSH1 0x0 DUP1 REVERT JUMPDEST POP JUMP JUMPDEST PUSH1 0x0 DUP2 MLOAD SWAP1 POP PUSH2 0x144 DUP2 PUSH2 0x11E JUMP JUMPDEST SWAP3 SWAP2 POP POP JUMP JUMPDEST PUSH1 0x0 PUSH1 0x20 DUP3 DUP5 SUB SLT ISZERO PUSH2 0x160 JUMPI PUSH2 0x15F PUSH2 0xE7 JUMP JUMPDEST JUMPDEST PUSH1 0x0 PUSH2 0x16E DUP5 DUP3 DUP6 ADD PUSH2 0x135 JUMP JUMPDEST SWAP2 POP POP SWAP3 SWAP2 POP POP JUMP JUMPDEST PUSH1 0x0 DUP3 DUP3 MSTORE PUSH1 0x20 DUP3 ADD SWAP1 POP SWAP3 SWAP2 POP POP JUMP JUMPDEST PUSH32 0x496E76616C6964206D65646963616C207265636F726473206164647265737300 PUSH1 0x0 DUP3 ADD MSTORE POP JUMP JUMPDEST PUSH1 0x0 PUSH2 0x1BE PUSH1 0x1F DUP4 PUSH2 0x177 JUMP JUMPDEST SWAP2 POP PUSH2 0x1C9 DUP3 PUSH2 0x188 JUMP JUMPDEST PUSH1 0x20 DUP3 ADD SWAP1 POP SWAP2 SWAP1 POP JUMP JUMPDEST PUSH1 0x0 PUSH1 0x20 DUP3 ADD SWAP1 POP DUP2 DUP2 SUB PUSH1 0x0 DUP4 ADD MSTORE PUSH2 0x1ED DUP2 PUSH2 0x1B1 JUMP JUMPDEST SWAP1 POP SWAP2 SWAP1 POP JUMP JUMPDEST PUSH2 0x2AA6 DUP1 PUSH2 0x203 PUSH1 0x0 CODECOPY PUSH1 0x0 RETURN INVALID PUSH1 0x80 PUSH1 0x40 MSTORE CALLVALUE DUP1 ISZERO PUSH2 0x10 JUMPI PUSH1 0x0 DUP1 REVERT JUMPDEST POP PUSH1 0x4 CALLDATASIZE LT PUSH2 0xB4 JUMPI PUSH1 0x0 CALLDATALOAD PUSH1 0xE0 SHR DUP1 PUSH4 0x9CB80F00 GT PUSH2 0x71 JUMPI DUP1 PUSH4 0x9CB80F00 EQ PUSH2 0x1CB JUMPI DUP1 PUSH4 0xA1FEBF81 EQ PUSH2 0x1FB JUMPI DUP1 PUSH4 0xB33ACAAC EQ PUSH2 0x217 JUMPI DUP1 PUSH4 0xBA33984A EQ PUSH2 0x235 JUMPI DUP1 PUSH4 0xC8F3AC2A EQ PUSH2 0x251 JUMPI DUP1 PUSH4 0xDE9B19DF EQ PUSH2 0x288 JUMPI PUSH2 0xB4 JUMP JUMPDEST DUP1 PUSH4 0x2AAEFB0 EQ PUSH2 0xB9 JUMPI DUP1 PUSH4 0x4233456 EQ PUSH2 0xE9 JUMPI DUP1 PUSH4 0x18BD4847 EQ PUSH2 0x119 JUMPI DUP1 PUSH4 0x45067E7A EQ PUSH2 0x149 JUMPI DUP1 PUSH4 0x7FBEB89C EQ PUSH2 0x179 JUMPI DUP1 PUSH4 0x97ADC59A EQ PUSH2 0x195 JUMPI JUMPDEST PUSH1 0x0 DUP1 REVERT JUMPDEST PUSH2 0xD3 PUSH1 0x4 DUP1 CALLDATASIZE SUB DUP2 ADD SWAP1 PUSH2 0xCE SWAP2 SWAP1 PUSH2 0x1902 JUMP JUMPDEST PUSH2 0x2B8 JUMP JUMPDEST PUSH1 0x40 MLOAD PUSH2 0xE0 SWAP2 SWAP1 PUSH2 0x19BA JUMP JUMPDEST PUSH1 0x40 MLOAD DUP1 SWAP2 SUB SWAP1 RETURN JUMPDEST PUSH2 0x103 PUSH1 0x4 DUP1 CALLDATASIZE SUB DUP2 ADD SWAP1 PUSH2 0xFE SWAP2 SWAP1 PUSH2 0x19D5 JUMP JUMPDEST PUSH2 0x8C2 JUMP JUMPDEST PUSH1 0x40 MLOAD PUSH2 0x110 SWAP2 SWAP1 PUSH2 0x1AC0 JUMP JUMPDEST PUSH1 0x40 MLOAD DUP1 SWAP2 SUB SWAP1 RETURN JUMPDEST PUSH2 0x133 PUSH1 0x4 DUP1 CALLDATASIZE SUB DUP2 ADD SWAP1 PUSH2 0x12E SWAP2 SWAP1 PUSH2 0x19D5 JUMP JUMPDEST PUSH2 0x959 JUMP JUMPDEST PUSH1 0x40 MLOAD PUSH2 0x140 SWAP2 SWAP1 PUSH2 0x1C23 JUMP JUMPDEST PUSH1 0x40 MLOAD DUP1 SWAP2 SUB SWAP1 RETURN JUMPDEST PUSH2 0x163 PUSH1 0x4 DUP1 CALLDATASIZE SUB DUP2 ADD SWAP1 PUSH2 0x15E SWAP2 SWAP1 PUSH2 0x1C45 JUMP JUMPDEST PUSH2 0xA01 JUMP JUMPDEST PUSH1 0x40 MLOAD PUSH2 0x170 SWAP2 SWAP1 PUSH2 0x19BA JUMP JUMPDEST PUSH1 0x40 MLOAD DUP1 SWAP2 SUB SWAP1 RETURN JUMPDEST PUSH2 0x193 PUSH1 0x4 DUP1 CALLDATASIZE SUB DUP2 ADD SWAP1 PUSH2 0x18E SWAP2 SWAP1 PUSH2 0x1CB1 JUMP JUMPDEST PUSH2 0xA32 JUMP JUMPDEST STOP JUMPDEST PUSH2 0x1AF PUSH1 0x4 DUP1 CALLDATASIZE SUB DUP2 ADD SWAP1 PUSH2 0x1AA SWAP2 SWAP1 PUSH2 0x1CB1 JUMP JUMPDEST PUSH2 0xBFC JUMP JUMPDEST PUSH1 0x40 MLOAD PUSH2 0x1C2 SWAP8 SWAP7 SWAP6 SWAP5 SWAP4 SWAP3 SWAP2 SWAP1 PUSH2 0x1D61 JUMP JUMPDEST PUSH1 0x40 MLOAD DUP1 SWAP2 SUB SWAP1 RETURN JUMPDEST PUSH2 0x1E5 PUSH1 0x4 DUP1 CALLDATASIZE SUB DUP2 ADD SWAP1 PUSH2 0x1E0 SWAP2 SWAP1 PUSH2 0x1C45 JUMP JUMPDEST PUSH2 0xD20 JUMP JUMPDEST PUSH1 0x40 MLOAD PUSH2 0x1F2 SWAP2 SWAP1 PUSH2 0x19BA JUMP JUMPDEST PUSH1 0x40 MLOAD DUP1 SWAP2 SUB SWAP1 RETURN JUMPDEST PUSH2 0x215 PUSH1 0x4 DUP1 CALLDATASIZE SUB DUP2 ADD SWAP1 PUSH2 0x210 SWAP2 SWAP1 PUSH2 0x1CB1 JUMP JUMPDEST PUSH2 0xD51 JUMP JUMPDEST STOP JUMPDEST PUSH2 0x21F PUSH2 0xFB3 JUMP JUMPDEST PUSH1 0x40 MLOAD PUSH2 0x22C SWAP2 SWAP1 PUSH2 0x1E36 JUMP JUMPDEST PUSH1 0x40 MLOAD DUP1 SWAP2 SUB SWAP1 RETURN JUMPDEST PUSH2 0x24F PUSH1 0x4 DUP1 CALLDATASIZE SUB DUP2 ADD SWAP1 PUSH2 0x24A SWAP2 SWAP1 PUSH2 0x1CB1 JUMP JUMPDEST PUSH2 0xFD7 JUMP JUMPDEST STOP JUMPDEST PUSH2 0x26B PUSH1 0x4 DUP1 CALLDATASIZE SUB DUP2 ADD SWAP1 PUSH2 0x266 SWAP2 SWAP1 PUSH2 0x1CB1 JUMP JUMPDEST PUSH2 0x11E8 JUMP JUMPDEST PUSH1 0x40 MLOAD PUSH2 0x27F SWAP9 SWAP8 SWAP7 SWAP6 SWAP5 SWAP4 SWAP3 SWAP2 SWAP1 PUSH2 0x1E51 JUMP JUMPDEST PUSH1 0x40 MLOAD DUP1 SWAP2 SUB SWAP1 RETURN JUMPDEST PUSH2 0x2A2 PUSH1 0x4 DUP1 CALLDATASIZE SUB DUP2 ADD SWAP1 PUSH2 0x29D SWAP2 SWAP1 PUSH2 0x19D5 JUMP JUMPDEST PUSH2 0x14BD JUMP JUMPDEST PUSH1 0x40 MLOAD PUSH2 0x2AF SWAP2 SWAP1 PUSH2 0x1AC0 JUMP JUMPDEST PUSH1 0x40 MLOAD DUP1 SWAP2 SUB SWAP1 RETURN JUMPDEST PUSH1 0x0 DUP1 PUSH20 0xFFFFFFFFFFFFFFFFFFFFFFFFFFFFFFFFFFFFFFFF AND DUP6 PUSH20 0xFFFFFFFFFFFFFFFFFFFFFFFFFFFFFFFFFFFFFFFF AND SUB PUSH2 0x328 JUMPI PUSH1 0x40 MLOAD PUSH32 0x8C379A000000000000000000000000000000000000000000000000000000000 DUP2 MSTORE PUSH1 0x4 ADD PUSH2 0x31F SWAP1 PUSH2 0x1F29 JUMP JUMPDEST PUSH1 0x40 MLOAD DUP1 SWAP2 SUB SWAP1 REVERT JUMPDEST CALLER PUSH20 0xFFFFFFFFFFFFFFFFFFFFFFFFFFFFFFFFFFFFFFFF AND DUP6 PUSH20 0xFFFFFFFFFFFFFFFFFFFFFFFFFFFFFFFFFFFFFFFF AND SUB PUSH2 0x396 JUMPI PUSH1 0x40 MLOAD PUSH32 0x8C379A000000000000000000000000000000000000000000000000000000000 DUP2 MSTORE PUSH1 0x4 ADD PUSH2 0x38D SWAP1 PUSH2 0x1F95 JUMP JUMPDEST PUSH1 0x40 MLOAD DUP1 SWAP2 SUB SWAP1 REVERT JUMPDEST PUSH1 0x0 DUP5 MLOAD GT PUSH2 0x3DA JUMPI PUSH1 0x40 MLOAD PUSH32 0x8C379A000000000000000000000000000000000000000000000000000000000 DUP2 MSTORE PUSH1 0x4 ADD PUSH2 0x3D1 SWAP1 PUSH2 0x2001 JUMP JUMPDEST PUSH1 0x40 MLOAD DUP1 SWAP2 SUB SWAP1 REVERT JUMPDEST PUSH1 0x0 DUP3 GT DUP1 ISZERO PUSH2 0x3EC JUMPI POP PUSH2 0x2D0 DUP3 GT ISZERO JUMPDEST PUSH2 0x42B JUMPI PUSH1 0x40 MLOAD PUSH32 0x8C379A000000000000000000000000000000000000000000000000000000000 DUP2 MSTORE PUSH1 0x4 ADD PUSH2 0x422 SWAP1 PUSH2 0x2093 JUMP JUMPDEST PUSH1 0x40 MLOAD DUP1 SWAP2 SUB SWAP1 REVERT JUMPDEST PUSH1 0x0 DUP1 PUSH1 0x0 SWAP1 SLOAD SWAP1 PUSH2 0x100 EXP SWAP1 DIV PUSH20 0xFFFFFFFFFFFFFFFFFFFFFFFFFFFFFFFFFFFFFFFF AND PUSH20 0xFFFFFFFFFFFFFFFFFFFFFFFFFFFFFFFFFFFFFFFF AND PUSH4 0xA0076E84 CALLER PUSH1 0x40 MLOAD DUP3 PUSH4 0xFFFFFFFF AND PUSH1 0xE0 SHL DUP2 MSTORE PUSH1 0x4 ADD PUSH2 0x487 SWAP2 SWAP1 PUSH2 0x20B3 JUMP JUMPDEST PUSH1 0x0 PUSH1 0x40 MLOAD DUP1 DUP4 SUB DUP2 DUP7 GAS STATICCALL ISZERO DUP1 ISZERO PUSH2 0x4A4 JUMPI RETURNDATASIZE PUSH1 0x0 DUP1 RETURNDATACOPY RETURNDATASIZE PUSH1 0x0 REVERT JUMPDEST POP POP POP POP PUSH1 0x40 MLOAD RETURNDATASIZE PUSH1 0x0 DUP3 RETURNDATACOPY RETURNDATASIZE PUSH1 0x1F NOT PUSH1 0x1F DUP3 ADD AND DUP3 ADD DUP1 PUSH1 0x40 MSTORE POP DUP2 ADD SWAP1 PUSH2 0x4CD SWAP2 SWAP1 PUSH2 0x21F3 JUMP JUMPDEST SWAP1 POP PUSH1 0x0 JUMPDEST DUP6 MLOAD DUP2 LT ISZERO PUSH2 0x596 JUMPI PUSH1 0x0 DUP1 JUMPDEST DUP4 MLOAD DUP2 LT ISZERO PUSH2 0x547 JUMPI DUP4 DUP2 DUP2 MLOAD DUP2 LT PUSH2 0x4FB JUMPI PUSH2 0x4FA PUSH2 0x223C JUMP JUMPDEST JUMPDEST PUSH1 0x20 MUL PUSH1 0x20 ADD ADD MLOAD DUP1 MLOAD SWAP1 PUSH1 0x20 ADD KECCAK256 DUP9 DUP5 DUP2 MLOAD DUP2 LT PUSH2 0x51D JUMPI PUSH2 0x51C PUSH2 0x223C JUMP JUMPDEST JUMPDEST PUSH1 0x20 MUL PUSH1 0x20 ADD ADD MLOAD DUP1 MLOAD SWAP1 PUSH1 0x20 ADD KECCAK256 SUB PUSH2 0x53A JUMPI PUSH1 0x1 SWAP2 POP PUSH2 0x547 JUMP JUMPDEST DUP1 DUP1 PUSH1 0x1 ADD SWAP2 POP POP PUSH2 0x4DF JUMP JUMPDEST POP DUP1 PUSH2 0x588 JUMPI PUSH1 0x40 MLOAD PUSH32 0x8C379A000000000000000000000000000000000000000000000000000000000 DUP2 MSTORE PUSH1 0x4 ADD PUSH2 0x57F SWAP1 PUSH2 0x22DD JUMP JUMPDEST PUSH1 0x40 MLOAD DUP1 SWAP2 SUB SWAP1 REVERT JUMPDEST POP DUP1 DUP1 PUSH1 0x1 ADD SWAP2 POP POP PUSH2 0x4D2 JUMP JUMPDEST POP PUSH1 0x0 CALLER DUP8 TIMESTAMP DUP9 PUSH1 0x40 MLOAD PUSH1 0x20 ADD PUSH2 0x5B0 SWAP5 SWAP4 SWAP3 SWAP2 SWAP1 PUSH2 0x22FD JUMP JUMPDEST PUSH1 0x40 MLOAD PUSH1 0x20 DUP2 DUP4 SUB SUB DUP2 MSTORE SWAP1 PUSH1 0x40 MSTORE DUP1 MLOAD SWAP1 PUSH1 0x20 ADD KECCAK256 SWAP1 POP PUSH1 0x0 PUSH2 0xE10 DUP6 PUSH2 0x5D8 SWAP2 SWAP1 PUSH2 0x2378 JUMP JUMPDEST TIMESTAMP PUSH2 0x5E3 SWAP2 SWAP1 PUSH2 0x23BA JUMP JUMPDEST SWAP1 POP PUSH1 0x40 MLOAD DUP1 PUSH2 0x100 ADD PUSH1 0x40 MSTORE DUP1 CALLER PUSH20 0xFFFFFFFFFFFFFFFFFFFFFFFFFFFFFFFFFFFFFFFF AND DUP2 MSTORE PUSH1 0x20 ADD DUP10 PUSH20 0xFFFFFFFFFFFFFFFFFFFFFFFFFFFFFFFFFFFFFFFF AND DUP2 MSTORE PUSH1 0x20 ADD DUP9 DUP2 MSTORE PUSH1 0x20 ADD TIMESTAMP DUP2 MSTORE PUSH1 0x20 ADD PUSH1 0x0 ISZERO ISZERO DUP2 MSTORE PUSH1 0x20 ADD PUSH1 0x0 ISZERO ISZERO DUP2 MSTORE PUSH1 0x20 ADD DUP8 DUP2 MSTORE PUSH1 0x20 ADD DUP3 DUP2 MSTORE POP PUSH1 0x1 PUSH1 0x0 DUP5 DUP2 MSTORE PUSH1 0x20 ADD SWAP1 DUP2 MSTORE PUSH1 0x20 ADD PUSH1 0x0 KECCAK256 PUSH1 0x0 DUP3 ADD MLOAD DUP2 PUSH1 0x0 ADD PUSH1 0x0 PUSH2 0x100 EXP DUP2 SLOAD DUP2 PUSH20 0xFFFFFFFFFFFFFFFFFFFFFFFFFFFFFFFFFFFFFFFF MUL NOT AND SWAP1 DUP4 PUSH20 0xFFFFFFFFFFFFFFFFFFFFFFFFFFFFFFFFFFFFFFFF AND MUL OR SWAP1 SSTORE POP PUSH1 0x20 DUP3 ADD MLOAD DUP2 PUSH1 0x1 ADD PUSH1 0x0 PUSH2 0x100 EXP DUP2 SLOAD DUP2 PUSH20 0xFFFFFFFFFFFFFFFFFFFFFFFFFFFFFFFFFFFFFFFF MUL NOT AND SWAP1 DUP4 PUSH20 0xFFFFFFFFFFFFFFFFFFFFFFFFFFFFFFFFFFFFFFFF AND MUL OR SWAP1 SSTORE POP PUSH1 0x40 DUP3 ADD MLOAD DUP2 PUSH1 0x2 ADD SWAP1 DUP1 MLOAD SWAP1 PUSH1 0x20 ADD SWAP1 PUSH2 0x70E SWAP3 SWAP2 SWAP1 PUSH2 0x1554 JUMP JUMPDEST POP PUSH1 0x60 DUP3 ADD MLOAD DUP2 PUSH1 0x3 ADD SSTORE PUSH1 0x80 DUP3 ADD MLOAD DUP2 PUSH1 0x4 ADD PUSH1 0x0 PUSH2 0x100 EXP DUP2 SLOAD DUP2 PUSH1 0xFF MUL NOT AND SWAP1 DUP4 ISZERO ISZERO MUL OR SWAP1 SSTORE POP PUSH1 0xA0 DUP3 ADD MLOAD DUP2 PUSH1 0x4 ADD PUSH1 0x1 PUSH2 0x100 EXP DUP2 SLOAD DUP2 PUSH1 0xFF MUL NOT AND SWAP1 DUP4 ISZERO ISZERO MUL OR SWAP1 SSTORE POP PUSH1 0xC0 DUP3 ADD MLOAD DUP2 PUSH1 0x5 ADD SWAP1 DUP2 PUSH2 0x76E SWAP2 SWAP1 PUSH2 0x25F0 JUMP JUMPDEST POP PUSH1 0xE0 DUP3 ADD MLOAD DUP2 PUSH1 0x6 ADD SSTORE SWAP1 POP POP PUSH1 0x2 PUSH1 0x0 CALLER PUSH20 0xFFFFFFFFFFFFFFFFFFFFFFFFFFFFFFFFFFFFFFFF AND PUSH20 0xFFFFFFFFFFFFFFFFFFFFFFFFFFFFFFFFFFFFFFFF AND DUP2 MSTORE PUSH1 0x20 ADD SWAP1 DUP2 MSTORE PUSH1 0x20 ADD PUSH1 0x0 KECCAK256 DUP3 SWAP1 DUP1 PUSH1 0x1 DUP2 SLOAD ADD DUP1 DUP3 SSTORE DUP1 SWAP2 POP POP PUSH1 0x1 SWAP1 SUB SWAP1 PUSH1 0x0 MSTORE PUSH1 0x20 PUSH1 0x0 KECCAK256 ADD PUSH1 0x0 SWAP1 SWAP2 SWAP1 SWAP2 SWAP1 SWAP2 POP SSTORE PUSH1 0x3 PUSH1 0x0 DUP10 PUSH20 0xFFFFFFFFFFFFFFFFFFFFFFFFFFFFFFFFFFFFFFFF AND PUSH20 0xFFFFFFFFFFFFFFFFFFFFFFFFFFFFFFFFFFFFFFFF AND DUP2 MSTORE PUSH1 0x20 ADD SWAP1 DUP2 MSTORE PUSH1 0x20 ADD PUSH1 0x0 KECCAK256 DUP3 SWAP1 DUP1 PUSH1 0x1 DUP2 SLOAD ADD DUP1 DUP3 SSTORE DUP1 SWAP2 POP POP PUSH1 0x1 SWAP1 SUB SWAP1 PUSH1 0x0 MSTORE PUSH1 0x20 PUSH1 0x0 KECCAK256 ADD PUSH1 0x0 SWAP1 SWAP2 SWAP1 SWAP2 SWAP1 SWAP2 POP SSTORE DUP8 PUSH20 0xFFFFFFFFFFFFFFFFFFFFFFFFFFFFFFFFFFFFFFFF AND CALLER PUSH20 0xFFFFFFFFFFFFFFFFFFFFFFFFFFFFFFFFFFFFFFFF AND DUP4 PUSH32 0x1E736B114BA5C73428F3437DD06D1B6C420A79AA76FD1556281CFD118031E661 DUP11 TIMESTAMP DUP12 DUP8 PUSH1 0x40 MLOAD PUSH2 0x8AC SWAP5 SWAP4 SWAP3 SWAP2 SWAP1 PUSH2 0x26C2 JUMP JUMPDEST PUSH1 0x40 MLOAD DUP1 SWAP2 SUB SWAP1 LOG4 DUP2 SWAP4 POP POP POP POP SWAP5 SWAP4 POP POP POP POP JUMP JUMPDEST PUSH1 0x60 PUSH1 0x3 PUSH1 0x0 DUP4 PUSH20 0xFFFFFFFFFFFFFFFFFFFFFFFFFFFFFFFFFFFFFFFF AND PUSH20 0xFFFFFFFFFFFFFFFFFFFFFFFFFFFFFFFFFFFFFFFF AND DUP2 MSTORE PUSH1 0x20 ADD SWAP1 DUP2 MSTORE PUSH1 0x20 ADD PUSH1 0x0 KECCAK256 DUP1 SLOAD DUP1 PUSH1 0x20 MUL PUSH1 0x20 ADD PUSH1 0x40 MLOAD SWAP1 DUP2 ADD PUSH1 0x40 MSTORE DUP1 SWAP3 SWAP2 SWAP1 DUP2 DUP2 MSTORE PUSH1 0x20 ADD DUP3 DUP1 SLOAD DUP1 ISZERO PUSH2 0x94D JUMPI PUSH1 0x20 MUL DUP3 ADD SWAP2 SWAP1 PUSH1 0x0 MSTORE PUSH1 0x20 PUSH1 0x0 KECCAK256 SWAP1 JUMPDEST DUP2 SLOAD DUP2 MSTORE PUSH1 0x20 ADD SWAP1 PUSH1 0x1 ADD SWAP1 DUP1 DUP4 GT PUSH2 0x939 JUMPI JUMPDEST POP POP POP POP POP SWAP1 POP SWAP2 SWAP1 POP JUMP JUMPDEST PUSH1 0x60 PUSH1 0x0 DUP1 SLOAD SWAP1 PUSH2 0x100 EXP SWAP1 DIV PUSH20 0xFFFFFFFFFFFFFFFFFFFFFFFFFFFFFFFFFFFFFFFF AND PUSH20 0xFFFFFFFFFFFFFFFFFFFFFFFFFFFFFFFFFFFFFFFF AND PUSH4 0xA0076E84 DUP4 PUSH1 0x40 MLOAD DUP3 PUSH4 0xFFFFFFFF AND PUSH1 0xE0 SHL DUP2 MSTORE PUSH1 0x4 ADD PUSH2 0x9B4 SWAP2 SWAP1 PUSH2 0x20B3 JUMP JUMPDEST PUSH1 0x0 PUSH1 0x40 MLOAD DUP1 DUP4 SUB DUP2 DUP7 GAS STATICCALL ISZERO DUP1 ISZERO PUSH2 0x9D1 JUMPI RETURNDATASIZE PUSH1 0x0 DUP1 RETURNDATACOPY RETURNDATASIZE PUSH1 0x0 REVERT JUMPDEST POP POP POP POP PUSH1 0x40 MLOAD RETURNDATASIZE PUSH1 0x0 DUP3 RETURNDATACOPY RETURNDATASIZE PUSH1 0x1F NOT PUSH1 0x1F DUP3 ADD AND DUP3 ADD DUP1 PUSH1 0x40 MSTORE POP DUP2 ADD SWAP1 PUSH2 0x9FA SWAP2 SWAP1 PUSH2 0x21F3 JUMP JUMPDEST SWAP1 POP SWAP2 SWAP1 POP JUMP JUMPDEST PUSH1 0x2 PUSH1 0x20 MSTORE DUP2 PUSH1 0x0 MSTORE PUSH1 0x40 PUSH1 0x0 KECCAK256 DUP2 DUP2 SLOAD DUP2 LT PUSH2 0xA1D JUMPI PUSH1 0x0 DUP1 REVERT JUMPDEST SWAP1 PUSH1 0x0 MSTORE PUSH1 0x20 PUSH1 0x0 KECCAK256 ADD PUSH1 0x0 SWAP2 POP SWAP2 POP POP SLOAD DUP2 JUMP JUMPDEST PUSH1 0x0 PUSH1 0x1 PUSH1 0x0 DUP4 DUP2 MSTORE PUSH1 0x20 ADD SWAP1 DUP2 MSTORE PUSH1 0x20 ADD PUSH1 0x0 KECCAK256 SWAP1 POP CALLER PUSH20 0xFFFFFFFFFFFFFFFFFFFFFFFFFFFFFFFFFFFFFFFF AND DUP2 PUSH1 0x0 ADD PUSH1 0x0 SWAP1 SLOAD SWAP1 PUSH2 0x100 EXP SWAP1 DIV PUSH20 0xFFFFFFFFFFFFFFFFFFFFFFFFFFFFFFFFFFFFFFFF AND PUSH20 0xFFFFFFFFFFFFFFFFFFFFFFFFFFFFFFFFFFFFFFFF AND EQ PUSH2 0xADB JUMPI PUSH1 0x40 MLOAD PUSH32 0x8C379A000000000000000000000000000000000000000000000000000000000 DUP2 MSTORE PUSH1 0x4 ADD PUSH2 0xAD2 SWAP1 PUSH2 0x2761 JUMP JUMPDEST PUSH1 0x40 MLOAD DUP1 SWAP2 SUB SWAP1 REVERT JUMPDEST DUP1 PUSH1 0x4 ADD PUSH1 0x0 SWAP1 SLOAD SWAP1 PUSH2 0x100 EXP SWAP1 DIV PUSH1 0xFF AND ISZERO PUSH2 0xB2D JUMPI PUSH1 0x40 MLOAD PUSH32 0x8C379A000000000000000000000000000000000000000000000000000000000 DUP2 MSTORE PUSH1 0x4 ADD PUSH2 0xB24 SWAP1 PUSH2 0x27CD JUMP JUMPDEST PUSH1 0x40 MLOAD DUP1 SWAP2 SUB SWAP1 REVERT JUMPDEST PUSH1 0x1 DUP2 PUSH1 0x4 ADD PUSH1 0x0 PUSH2 0x100 EXP DUP2 SLOAD DUP2 PUSH1 0xFF MUL NOT AND SWAP1 DUP4 ISZERO ISZERO MUL OR SWAP1 SSTORE POP DUP1 PUSH1 0x1 ADD PUSH1 0x0 SWAP1 SLOAD SWAP1 PUSH2 0x100 EXP SWAP1 DIV PUSH20 0xFFFFFFFFFFFFFFFFFFFFFFFFFFFFFFFFFFFFFFFF AND PUSH20 0xFFFFFFFFFFFFFFFFFFFFFFFFFFFFFFFFFFFFFFFF AND DUP2 PUSH1 0x0 ADD PUSH1 0x0 SWAP1 SLOAD SWAP1 PUSH2 0x100 EXP SWAP1 DIV PUSH20 0xFFFFFFFFFFFFFFFFFFFFFFFFFFFFFFFFFFFFFFFF AND PUSH20 0xFFFFFFFFFFFFFFFFFFFFFFFFFFFFFFFFFFFFFFFF AND DUP4 PUSH32 0xF7193B55063B461E593969C16D95E6690EA93DF45040AE8BCA3790533C135521 TIMESTAMP PUSH1 0x40 MLOAD PUSH2 0xBF0 SWAP2 SWAP1 PUSH2 0x27ED JUMP JUMPDEST PUSH1 0x40 MLOAD DUP1 SWAP2 SUB SWAP1 LOG4 POP POP JUMP JUMPDEST PUSH1 0x1 PUSH1 0x20 MSTORE DUP1 PUSH1 0x0 MSTORE PUSH1 0x40 PUSH1 0x0 KECCAK256 PUSH1 0x0 SWAP2 POP SWAP1 POP DUP1 PUSH1 0x0 ADD PUSH1 0x0 SWAP1 SLOAD SWAP1 PUSH2 0x100 EXP SWAP1 DIV PUSH20 0xFFFFFFFFFFFFFFFFFFFFFFFFFFFFFFFFFFFFFFFF AND SWAP1 DUP1 PUSH1 0x1 ADD PUSH1 0x0 SWAP1 SLOAD SWAP1 PUSH2 0x100 EXP SWAP1 DIV PUSH20 0xFFFFFFFFFFFFFFFFFFFFFFFFFFFFFFFFFFFFFFFF AND SWAP1 DUP1 PUSH1 0x3 ADD SLOAD SWAP1 DUP1 PUSH1 0x4 ADD PUSH1 0x0 SWAP1 SLOAD SWAP1 PUSH2 0x100 EXP SWAP1 DIV PUSH1 0xFF AND SWAP1 DUP1 PUSH1 0x4 ADD PUSH1 0x1 SWAP1 SLOAD SWAP1 PUSH2 0x100 EXP SWAP1 DIV PUSH1 0xFF AND SWAP1 DUP1 PUSH1 0x5 ADD DUP1 SLOAD PUSH2 0xC97 SWAP1 PUSH2 0x241D JUMP JUMPDEST DUP1 PUSH1 0x1F ADD PUSH1 0x20 DUP1 SWAP2 DIV MUL PUSH1 0x20 ADD PUSH1 0x40 MLOAD SWAP1 DUP2 ADD PUSH1 0x40 MSTORE DUP1 SWAP3 SWAP2 SWAP1 DUP2 DUP2 MSTORE PUSH1 0x20 ADD DUP3 DUP1 SLOAD PUSH2 0xCC3 SWAP1 PUSH2 0x241D JUMP JUMPDEST DUP1 ISZERO PUSH2 0xD10 JUMPI DUP1 PUSH1 0x1F LT PUSH2 0xCE5 JUMPI PUSH2 0x100 DUP1 DUP4 SLOAD DIV MUL DUP4 MSTORE SWAP2 PUSH1 0x20 ADD SWAP2 PUSH2 0xD10 JUMP JUMPDEST DUP3 ADD SWAP2 SWAP1 PUSH1 0x0 MSTORE PUSH1 0x20 PUSH1 0x0 KECCAK256 SWAP1 JUMPDEST DUP2 SLOAD DUP2 MSTORE SWAP1 PUSH1 0x1 ADD SWAP1 PUSH1 0x20 ADD DUP1 DUP4 GT PUSH2 0xCF3 JUMPI DUP3 SWAP1 SUB PUSH1 0x1F AND DUP3 ADD SWAP2 JUMPDEST POP POP POP POP POP SWAP1 DUP1 PUSH1 0x6 ADD SLOAD SWAP1 POP DUP8 JUMP JUMPDEST PUSH1 0x3 PUSH1 0x20 MSTORE DUP2 PUSH1 0x0 MSTORE PUSH1 0x40 PUSH1 0x0 KECCAK256 DUP2 DUP2 SLOAD DUP2 LT PUSH2 0xD3C JUMPI PUSH1 0x0 DUP1 REVERT JUMPDEST SWAP1 PUSH1 0x0 MSTORE PUSH1 0x20 PUSH1 0x0 KECCAK256 ADD PUSH1 0x0 SWAP2 POP SWAP2 POP POP SLOAD DUP2 JUMP JUMPDEST PUSH1 0x0 PUSH1 0x1 PUSH1 0x0 DUP4 DUP2 MSTORE PUSH1 0x20 ADD SWAP1 DUP2 MSTORE PUSH1 0x20 ADD PUSH1 0x0 KECCAK256 SWAP1 POP CALLER PUSH20 0xFFFFFFFFFFFFFFFFFFFFFFFFFFFFFFFFFFFFFFFF AND DUP2 PUSH1 0x1 ADD PUSH1 0x0 SWAP1 SLOAD SWAP1 PUSH2 0x100 EXP SWAP1 DIV PUSH20 0xFFFFFFFFFFFFFFFFFFFFFFFFFFFFFFFFFFFFFFFF AND PUSH20 0xFFFFFFFFFFFFFFFFFFFFFFFFFFFFFFFFFFFFFFFF AND EQ PUSH2 0xDFA JUMPI PUSH1 0x40 MLOAD PUSH32 0x8C379A000000000000000000000000000000000000000000000000000000000 DUP2 MSTORE PUSH1 0x4 ADD PUSH2 0xDF1 SWAP1 PUSH2 0x287A JUMP JUMPDEST PUSH1 0x40 MLOAD DUP1 SWAP2 SUB SWAP1 REVERT JUMPDEST DUP1 PUSH1 0x4 ADD PUSH1 0x1 SWAP1 SLOAD SWAP1 PUSH2 0x100 EXP SWAP1 DIV PUSH1 0xFF AND PUSH2 0xE4B JUMPI PUSH1 0x40 MLOAD PUSH32 0x8C379A000000000000000000000000000000000000000000000000000000000 DUP2 MSTORE PUSH1 0x4 ADD PUSH2 0xE42 SWAP1 PUSH2 0x28E6 JUMP JUMPDEST PUSH1 0x40 MLOAD DUP1 SWAP2 SUB SWAP1 REVERT JUMPDEST DUP1 PUSH1 0x4 ADD PUSH1 0x0 SWAP1 SLOAD SWAP1 PUSH2 0x100 EXP SWAP1 DIV PUSH1 0xFF AND ISZERO PUSH2 0xE9D JUMPI PUSH1 0x40 MLOAD PUSH32 0x8C379A000000000000000000000000000000000000000000000000000000000 DUP2 MSTORE PUSH1 0x4 ADD PUSH2 0xE94 SWAP1 PUSH2 0x27CD JUMP JUMPDEST PUSH1 0x40 MLOAD DUP1 SWAP2 SUB SWAP1 REVERT JUMPDEST DUP1 PUSH1 0x6 ADD SLOAD TIMESTAMP GT ISZERO PUSH2 0xEE4 JUMPI PUSH1 0x40 MLOAD PUSH32 0x8C379A000000000000000000000000000000000000000000000000000000000 DUP2 MSTORE PUSH1 0x4 ADD PUSH2 0xEDB SWAP1 PUSH2 0x2952 JUMP JUMPDEST PUSH1 0x40 MLOAD DUP1 SWAP2 SUB SWAP1 REVERT JUMPDEST PUSH1 0x1 DUP2 PUSH1 0x4 ADD PUSH1 0x0 PUSH2 0x100 EXP DUP2 SLOAD DUP2 PUSH1 0xFF MUL NOT AND SWAP1 DUP4 ISZERO ISZERO MUL OR SWAP1 SSTORE POP DUP1 PUSH1 0x1 ADD PUSH1 0x0 SWAP1 SLOAD SWAP1 PUSH2 0x100 EXP SWAP1 DIV PUSH20 0xFFFFFFFFFFFFFFFFFFFFFFFFFFFFFFFFFFFFFFFF AND PUSH20 0xFFFFFFFFFFFFFFFFFFFFFFFFFFFFFFFFFFFFFFFF AND DUP2 PUSH1 0x0 ADD PUSH1 0x0 SWAP1 SLOAD SWAP1 PUSH2 0x100 EXP SWAP1 DIV PUSH20 0xFFFFFFFFFFFFFFFFFFFFFFFFFFFFFFFFFFFFFFFF AND PUSH20 0xFFFFFFFFFFFFFFFFFFFFFFFFFFFFFFFFFFFFFFFF AND DUP4 PUSH32 0xC9FCA47377BE101830420679B065FA8D4BABF6D00E9E9F3CA9957E9E1702FCFB TIMESTAMP PUSH1 0x40 MLOAD PUSH2 0xFA7 SWAP2 SWAP1 PUSH2 0x27ED JUMP JUMPDEST PUSH1 0x40 MLOAD DUP1 SWAP2 SUB SWAP1 LOG4 POP POP JUMP JUMPDEST PUSH1 0x0 DUP1 SLOAD SWAP1 PUSH2 0x100 EXP SWAP1 DIV PUSH20 0xFFFFFFFFFFFFFFFFFFFFFFFFFFFFFFFFFFFFFFFF AND DUP2 JUMP JUMPDEST PUSH1 0x0 PUSH1 0x1 PUSH1 0x0 DUP4 DUP2 MSTORE PUSH1 0x20 ADD SWAP1 DUP2 MSTORE PUSH1 0x20 ADD PUSH1 0x0 KECCAK256 SWAP1 POP CALLER PUSH20 0xFFFFFFFFFFFFFFFFFFFFFFFFFFFFFFFFFFFFFFFF AND DUP2 PUSH1 0x0 ADD PUSH1 0x0 SWAP1 SLOAD SWAP1 PUSH2 0x100 EXP SWAP1 DIV PUSH20 0xFFFFFFFFFFFFFFFFFFFFFFFFFFFFFFFFFFFFFFFF AND PUSH20 0xFFFFFFFFFFFFFFFFFFFFFFFFFFFFFFFFFFFFFFFF AND EQ PUSH2 0x1080 JUMPI PUSH1 0x40 MLOAD PUSH32 0x8C379A000000000000000000000000000000000000000000000000000000000 DUP2 MSTORE PUSH1 0x4 ADD PUSH2 0x1077 SWAP1 PUSH2 0x29E4 JUMP JUMPDEST PUSH1 0x40 MLOAD DUP1 SWAP2 SUB SWAP1 REVERT JUMPDEST DUP1 PUSH1 0x4 ADD PUSH1 0x1 SWAP1 SLOAD SWAP1 PUSH2 0x100 EXP SWAP1 DIV PUSH1 0xFF AND ISZERO PUSH2 0x10D2 JUMPI PUSH1 0x40 MLOAD PUSH32 0x8C379A000000000000000000000000000000000000000000000000000000000 DUP2 MSTORE PUSH1 0x4 ADD PUSH2 0x10C9 SWAP1 PUSH2 0x2A50 JUMP JUMPDEST PUSH1 0x40 MLOAD DUP1 SWAP2 SUB SWAP1 REVERT JUMPDEST DUP1 PUSH1 0x6 ADD SLOAD TIMESTAMP GT ISZERO PUSH2 0x1119 JUMPI PUSH1 0x40 MLOAD PUSH32 0x8C379A000000000000000000000000000000000000000000000000000000000 DUP2 MSTORE PUSH1 0x4 ADD PUSH2 0x1110 SWAP1 PUSH2 0x2952 JUMP JUMPDEST PUSH1 0x40 MLOAD DUP1 SWAP2 SUB SWAP1 REVERT JUMPDEST PUSH1 0x1 DUP2 PUSH1 0x4 ADD PUSH1 0x1 PUSH2 0x100 EXP DUP2 SLOAD DUP2 PUSH1 0xFF MUL NOT AND SWAP1 DUP4 ISZERO ISZERO MUL OR SWAP1 SSTORE POP DUP1 PUSH1 0x1 ADD PUSH1 0x0 SWAP1 SLOAD SWAP1 PUSH2 0x100 EXP SWAP1 DIV PUSH20 0xFFFFFFFFFFFFFFFFFFFFFFFFFFFFFFFFFFFFFFFF AND PUSH20 0xFFFFFFFFFFFFFFFFFFFFFFFFFFFFFFFFFFFFFFFF AND DUP2 PUSH1 0x0 ADD PUSH1 0x0 SWAP1 SLOAD SWAP1 PUSH2 0x100 EXP SWAP1 DIV PUSH20 0xFFFFFFFFFFFFFFFFFFFFFFFFFFFFFFFFFFFFFFFF AND PUSH20 0xFFFFFFFFFFFFFFFFFFFFFFFFFFFFFFFFFFFFFFFF AND DUP4 PUSH32 0x221FDBC5FCB833EB1B03637AA88A8992624F3A3D52C8E4335A0E47717B8E3E19 TIMESTAMP PUSH1 0x40 MLOAD PUSH2 0x11DC SWAP2 SWAP1 PUSH2 0x27ED JUMP JUMPDEST PUSH1 0x40 MLOAD DUP1 SWAP2 SUB SWAP1 LOG4 POP POP JUMP JUMPDEST PUSH1 0x0 DUP1 PUSH1 0x60 PUSH1 0x0 DUP1 PUSH1 0x0 PUSH1 0x60 PUSH1 0x0 DUP1 PUSH1 0x1 PUSH1 0x0 DUP12 DUP2 MSTORE PUSH1 0x20 ADD SWAP1 DUP2 MSTORE PUSH1 0x20 ADD PUSH1 0x0 KECCAK256 PUSH1 0x40 MLOAD DUP1 PUSH2 0x100 ADD PUSH1 0x40 MSTORE SWAP1 DUP2 PUSH1 0x0 DUP3 ADD PUSH1 0x0 SWAP1 SLOAD SWAP1 PUSH2 0x100 EXP SWAP1 DIV PUSH20 0xFFFFFFFFFFFFFFFFFFFFFFFFFFFFFFFFFFFFFFFF AND PUSH20 0xFFFFFFFFFFFFFFFFFFFFFFFFFFFFFFFFFFFFFFFF AND PUSH20 0xFFFFFFFFFFFFFFFFFFFFFFFFFFFFFFFFFFFFFFFF AND DUP2 MSTORE PUSH1 0x20 ADD PUSH1 0x1 DUP3 ADD PUSH1 0x0 SWAP1 SLOAD SWAP1 PUSH2 0x100 EXP SWAP1 DIV PUSH20 0xFFFFFFFFFFFFFFFFFFFFFFFFFFFFFFFFFFFFFFFF AND PUSH20 0xFFFFFFFFFFFFFFFFFFFFFFFFFFFFFFFFFFFFFFFF AND PUSH20 0xFFFFFFFFFFFFFFFFFFFFFFFFFFFFFFFFFFFFFFFF AND DUP2 MSTORE PUSH1 0x20 ADD PUSH1 0x2 DUP3 ADD DUP1 SLOAD DUP1 PUSH1 0x20 MUL PUSH1 0x20 ADD PUSH1 0x40 MLOAD SWAP1 DUP2 ADD PUSH1 0x40 MSTORE DUP1 SWAP3 SWAP2 SWAP1 DUP2 DUP2 MSTORE PUSH1 0x20 ADD PUSH1 0x0 SWAP1 JUMPDEST DUP3 DUP3 LT ISZERO PUSH2 0x1393 JUMPI DUP4 DUP3 SWAP1 PUSH1 0x0 MSTORE PUSH1 0x20 PUSH1 0x0 KECCAK256 ADD DUP1 SLOAD PUSH2 0x1306 SWAP1 PUSH2 0x241D JUMP JUMPDEST DUP1 PUSH1 0x1F ADD PUSH1 0x20 DUP1 SWAP2 DIV MUL PUSH1 0x20 ADD PUSH1 0x40 MLOAD SWAP1 DUP2 ADD PUSH1 0x40 MSTORE DUP1 SWAP3 SWAP2 SWAP1 DUP2 DUP2 MSTORE PUSH1 0x20 ADD DUP3 DUP1 SLOAD PUSH2 0x1332 SWAP1 PUSH2 0x241D JUMP JUMPDEST DUP1 ISZERO PUSH2 0x137F JUMPI DUP1 PUSH1 0x1F LT PUSH2 0x1354 JUMPI PUSH2 0x100 DUP1 DUP4 SLOAD DIV MUL DUP4 MSTORE SWAP2 PUSH1 0x20 ADD SWAP2 PUSH2 0x137F JUMP JUMPDEST DUP3 ADD SWAP2 SWAP1 PUSH1 0x0 MSTORE PUSH1 0x20 PUSH1 0x0 KECCAK256 SWAP1 JUMPDEST DUP2 SLOAD DUP2 MSTORE SWAP1 PUSH1 0x1 ADD SWAP1 PUSH1 0x20 ADD DUP1 DUP4 GT PUSH2 0x1362 JUMPI DUP3 SWAP1 SUB PUSH1 0x1F AND DUP3 ADD SWAP2 JUMPDEST POP POP POP POP POP DUP2 MSTORE PUSH1 0x20 ADD SWAP1 PUSH1 0x1 ADD SWAP1 PUSH2 0x12E7 JUMP JUMPDEST POP POP POP POP DUP2 MSTORE PUSH1 0x20 ADD PUSH1 0x3 DUP3 ADD SLOAD DUP2 MSTORE PUSH1 0x20 ADD PUSH1 0x4 DUP3 ADD PUSH1 0x0 SWAP1 SLOAD SWAP1 PUSH2 0x100 EXP SWAP1 DIV PUSH1 0xFF AND ISZERO ISZERO ISZERO ISZERO DUP2 MSTORE PUSH1 0x20 ADD PUSH1 0x4 DUP3 ADD PUSH1 0x1 SWAP1 SLOAD SWAP1 PUSH2 0x100 EXP SWAP1 DIV PUSH1 0xFF AND ISZERO ISZERO ISZERO ISZERO DUP2 MSTORE PUSH1 0x20 ADD PUSH1 0x5 DUP3 ADD DUP1 SLOAD PUSH2 0x13EB SWAP1 PUSH2 0x241D JUMP JUMPDEST DUP1 PUSH1 0x1F ADD PUSH1 0x20 DUP1 SWAP2 DIV MUL PUSH1 0x20 ADD PUSH1 0x40 MLOAD SWAP1 DUP2 ADD PUSH1 0x40 MSTORE DUP1 SWAP3 SWAP2 SWAP1 DUP2 DUP2 MSTORE PUSH1 0x20 ADD DUP3 DUP1 SLOAD PUSH2 0x1417 SWAP1 PUSH2 0x241D JUMP JUMPDEST DUP1 ISZERO PUSH2 0x1464 JUMPI DUP1 PUSH1 0x1F LT PUSH2 0x1439 JUMPI PUSH2 0x100 DUP1 DUP4 SLOAD DIV MUL DUP4 MSTORE SWAP2 PUSH1 0x20 ADD SWAP2 PUSH2 0x1464 JUMP JUMPDEST DUP3 ADD SWAP2 SWAP1 PUSH1 0x0 MSTORE PUSH1 0x20 PUSH1 0x0 KECCAK256 SWAP1 JUMPDEST DUP2 SLOAD DUP2 MSTORE SWAP1 PUSH1 0x1 ADD SWAP1 PUSH1 0x20 ADD DUP1 DUP4 GT PUSH2 0x1447 JUMPI DUP3 SWAP1 SUB PUSH1 0x1F AND DUP3 ADD SWAP2 JUMPDEST POP POP POP POP POP DUP2 MSTORE PUSH1 0x20 ADD PUSH1 0x6 DUP3 ADD SLOAD DUP2 MSTORE POP POP SWAP1 POP DUP1 PUSH1 0x0 ADD MLOAD DUP2 PUSH1 0x20 ADD MLOAD DUP3 PUSH1 0x40 ADD MLOAD DUP4 PUSH1 0x60 ADD MLOAD DUP5 PUSH1 0x80 ADD MLOAD DUP6 PUSH1 0xA0 ADD MLOAD DUP7 PUSH1 0xC0 ADD MLOAD DUP8 PUSH1 0xE0 ADD MLOAD SWAP9 POP SWAP9 POP SWAP9 POP SWAP9 POP SWAP9 POP SWAP9 POP SWAP9 POP SWAP9 POP POP SWAP2 SWAP4 SWAP6 SWAP8 POP SWAP2 SWAP4 SWAP6 SWAP8 JUMP JUMPDEST PUSH1 0x60 PUSH1 0x2 PUSH1 0x0 DUP4 PUSH20 0xFFFFFFFFFFFFFFFFFFFFFFFFFFFFFFFFFFFFFFFF AND PUSH20 0xFFFFFFFFFFFFFFFFFFFFFFFFFFFFFFFFFFFFFFFF AND DUP2 MSTORE PUSH1 0x20 ADD SWAP1 DUP2 MSTORE PUSH1 0x20 ADD PUSH1 0x0 KECCAK256 DUP1 SLOAD DUP1 PUSH1 0x20 MUL PUSH1 0x20 ADD PUSH1 0x40 MLOAD SWAP1 DUP2 ADD PUSH1 0x40 MSTORE DUP1 SWAP3 SWAP2 SWAP1 DUP2 DUP2 MSTORE PUSH1 0x20 ADD DUP3 DUP1 SLOAD DUP1 ISZERO PUSH2 0x1548 JUMPI PUSH1 0x20 MUL DUP3 ADD SWAP2 SWAP1 PUSH1 0x0 MSTORE PUSH1 0x20 PUSH1 0x0 KECCAK256 SWAP1 JUMPDEST DUP2 SLOAD DUP2 MSTORE PUSH1 0x20 ADD SWAP1 PUSH1 0x1 ADD SWAP1 DUP1 DUP4 GT PUSH2 0x1534 JUMPI JUMPDEST POP POP POP POP POP SWAP1 POP SWAP2 SWAP1 POP JUMP JUMPDEST DUP3 DUP1 SLOAD DUP3 DUP3 SSTORE SWAP1 PUSH1 0x0 MSTORE PUSH1 0x20 PUSH1 0x0 KECCAK256 SWAP1 DUP2 ADD SWAP3 DUP3 ISZERO PUSH2 0x159C JUMPI SWAP2 PUSH1 0x20 MUL DUP3 ADD JUMPDEST DUP3 DUP2 GT ISZERO PUSH2 0x159B JUMPI DUP3 MLOAD DUP3 SWAP1 DUP2 PUSH2 0x158B SWAP2 SWAP1 PUSH2 0x25F0 JUMP JUMPDEST POP SWAP2 PUSH1 0x20 ADD SWAP2 SWAP1 PUSH1 0x1 ADD SWAP1 PUSH2 0x1574 JUMP JUMPDEST JUMPDEST POP SWAP1 POP PUSH2 0x15A9 SWAP2 SWAP1 PUSH2 0x15AD JUMP JUMPDEST POP SWAP1 JUMP JUMPDEST JUMPDEST DUP1 DUP3 GT ISZERO PUSH2 0x15CD JUMPI PUSH1 0x0 DUP2 DUP2 PUSH2 0x15C4 SWAP2 SWAP1 PUSH2 0x15D1 JUMP JUMPDEST POP PUSH1 0x1 ADD PUSH2 0x15AE JUMP JUMPDEST POP SWAP1 JUMP JUMPDEST POP DUP1 SLOAD PUSH2 0x15DD SWAP1 PUSH2 0x241D JUMP JUMPDEST PUSH1 0x0 DUP3 SSTORE DUP1 PUSH1 0x1F LT PUSH2 0x15EF JUMPI POP PUSH2 0x160E JUMP JUMPDEST PUSH1 0x1F ADD PUSH1 0x20 SWAP1 DIV SWAP1 PUSH1 0x0 MSTORE PUSH1 0x20 PUSH1 0x0 KECCAK256 SWAP1 DUP2 ADD SWAP1 PUSH2 0x160D SWAP2 SWAP1 PUSH2 0x1611 JUMP JUMPDEST JUMPDEST POP JUMP JUMPDEST JUMPDEST DUP1 DUP3 GT ISZERO PUSH2 0x162A JUMPI PUSH1 0x0 DUP2 PUSH1 0x0 SWAP1 SSTORE POP PUSH1 0x1 ADD PUSH2 0x1612 JUMP JUMPDEST POP SWAP1 JUMP JUMPDEST PUSH1 0x0 PUSH1 0x40 MLOAD SWAP1 POP SWAP1 JUMP JUMPDEST PUSH1 0x0 DUP1 REVERT JUMPDEST PUSH1 0x0 DUP1 REVERT JUMPDEST PUSH1 0x0 PUSH20 0xFFFFFFFFFFFFFFFFFFFFFFFFFFFFFFFFFFFFFFFF DUP3 AND SWAP1 POP SWAP2 SWAP1 POP JUMP JUMPDEST PUSH1 0x0 PUSH2 0x166D DUP3 PUSH2 0x1642 JUMP JUMPDEST SWAP1 POP SWAP2 SWAP1 POP JUMP JUMPDEST PUSH2 0x167D DUP2 PUSH2 0x1662 JUMP JUMPDEST DUP2 EQ PUSH2 0x1688 JUMPI PUSH1 0x0 DUP1 REVERT JUMPDEST POP JUMP JUMPDEST PUSH1 0x0 DUP2 CALLDATALOAD SWAP1 POP PUSH2 0x169A DUP2 PUSH2 0x1674 JUMP JUMPDEST SWAP3 SWAP2 POP POP JUMP JUMPDEST PUSH1 0x0 DUP1 REVERT JUMPDEST PUSH1 0x0 PUSH1 0x1F NOT PUSH1 0x1F DUP4 ADD AND SWAP1 POP SWAP2 SWAP1 POP JUMP JUMPDEST PUSH32 0x4E487B7100000000000000000000000000000000000000000000000000000000 PUSH1 0x0 MSTORE PUSH1 0x41 PUSH1 0x4 MSTORE PUSH1 0x24 PUSH1 0x0 REVERT JUMPDEST PUSH2 0x16EE DUP3 PUSH2 0x16A5 JUMP JUMPDEST DUP2 ADD DUP2 DUP2 LT PUSH8 0xFFFFFFFFFFFFFFFF DUP3 GT OR ISZERO PUSH2 0x170D JUMPI PUSH2 0x170C PUSH2 0x16B6 JUMP JUMPDEST JUMPDEST DUP1 PUSH1 0x40 MSTORE POP POP POP JUMP JUMPDEST PUSH1 0x0 PUSH2 0x1720 PUSH2 0x162E JUMP JUMPDEST SWAP1 POP PUSH2 0x172C DUP3 DUP3 PUSH2 0x16E5 JUMP JUMPDEST SWAP2 SWAP1 POP JUMP JUMPDEST PUSH1 0x0 PUSH8 0xFFFFFFFFFFFFFFFF DUP3 GT ISZERO PUSH2 0x174C JUMPI PUSH2 0x174B PUSH2 0x16B6 JUMP JUMPDEST JUMPDEST PUSH1 0x20 DUP3 MUL SWAP1 POP PUSH1 0x20 DUP2 ADD SWAP1 POP SWAP2 SWAP1 POP JUMP JUMPDEST PUSH1 0x0 DUP1 REVERT JUMPDEST PUSH1 0x0 DUP1 REVERT JUMPDEST PUSH1 0x0 PUSH8 0xFFFFFFFFFFFFFFFF DUP3 GT ISZERO PUSH2 0x1782 JUMPI PUSH2 0x1781 PUSH2 0x16B6 JUMP JUMPDEST JUMPDEST PUSH2 0x178B DUP3 PUSH2 0x16A5 JUMP JUMPDEST SWAP1 POP PUSH1 0x20 DUP2 ADD SWAP1 POP SWAP2 SWAP1 POP JUMP JUMPDEST DUP3 DUP2 DUP4 CALLDATACOPY PUSH1 0x0 DUP4 DUP4 ADD MSTORE POP POP POP JUMP JUMPDEST PUSH1 0x0 PUSH2 0x17BA PUSH2 0x17B5 DUP5 PUSH2 0x1767 JUMP JUMPDEST PUSH2 0x1716 JUMP JUMPDEST SWAP1 POP DUP3 DUP2 MSTORE PUSH1 0x20 DUP2 ADD DUP5 DUP5 DUP5 ADD GT ISZERO PUSH2 0x17D6 JUMPI PUSH2 0x17D5 PUSH2 0x1762 JUMP JUMPDEST JUMPDEST PUSH2 0x17E1 DUP5 DUP3 DUP6 PUSH2 0x1798 JUMP JUMPDEST POP SWAP4 SWAP3 POP POP POP JUMP JUMPDEST PUSH1 0x0 DUP3 PUSH1 0x1F DUP4 ADD SLT PUSH2 0x17FE JUMPI PUSH2 0x17FD PUSH2 0x16A0 JUMP JUMPDEST JUMPDEST DUP2 CALLDATALOAD PUSH2 0x180E DUP5 DUP3 PUSH1 0x20 DUP7 ADD PUSH2 0x17A7 JUMP JUMPDEST SWAP2 POP POP SWAP3 SWAP2 POP POP JUMP JUMPDEST PUSH1 0x0 PUSH2 0x182A PUSH2 0x1825 DUP5 PUSH2 0x1731 JUMP JUMPDEST PUSH2 0x1716 JUMP JUMPDEST SWAP1 POP DUP1 DUP4 DUP3 MSTORE PUSH1 0x20 DUP3 ADD SWAP1 POP PUSH1 0x20 DUP5 MUL DUP4 ADD DUP6 DUP2 GT ISZERO PUSH2 0x184D JUMPI PUSH2 0x184C PUSH2 0x175D JUMP JUMPDEST JUMPDEST DUP4 JUMPDEST DUP2 DUP2 LT ISZERO PUSH2 0x1894 JUMPI DUP1 CALLDATALOAD PUSH8 0xFFFFFFFFFFFFFFFF DUP2 GT ISZERO PUSH2 0x1872 JUMPI PUSH2 0x1871 PUSH2 0x16A0 JUMP JUMPDEST JUMPDEST DUP1 DUP7 ADD PUSH2 0x187F DUP10 DUP3 PUSH2 0x17E9 JUMP JUMPDEST DUP6 MSTORE PUSH1 0x20 DUP6 ADD SWAP5 POP POP POP PUSH1 0x20 DUP2 ADD SWAP1 POP PUSH2 0x184F JUMP JUMPDEST POP POP POP SWAP4 SWAP3 POP POP POP JUMP JUMPDEST PUSH1 0x0 DUP3 PUSH1 0x1F DUP4 ADD SLT PUSH2 0x18B3 JUMPI PUSH2 0x18B2 PUSH2 0x16A0 JUMP JUMPDEST JUMPDEST DUP2 CALLDATALOAD PUSH2 0x18C3 DUP5 DUP3 PUSH1 0x20 DUP7 ADD PUSH2 0x1817 JUMP JUMPDEST SWAP2 POP POP SWAP3 SWAP2 POP POP JUMP JUMPDEST PUSH1 0x0 DUP2 SWAP1 POP SWAP2 SWAP1 POP JUMP JUMPDEST PUSH2 0x18DF DUP2 PUSH2 0x18CC JUMP JUMPDEST DUP2 EQ PUSH2 0x18EA JUMPI PUSH1 0x0 DUP1 REVERT JUMPDEST POP JUMP JUMPDEST PUSH1 0x0 DUP2 CALLDATALOAD SWAP1 POP PUSH2 0x18FC DUP2 PUSH2 0x18D6 JUMP JUMPDEST SWAP3 SWAP2 POP POP JUMP JUMPDEST PUSH1 0x0 DUP1 PUSH1 0x0 DUP1 PUSH1 0x80 DUP6 DUP8 SUB SLT ISZERO PUSH2 0x191C JUMPI PUSH2 0x191B PUSH2 0x1638 JUMP JUMPDEST JUMPDEST PUSH1 0x0 PUSH2 0x192A DUP8 DUP3 DUP9 ADD PUSH2 0x168B JUMP JUMPDEST SWAP5 POP POP PUSH1 0x20 DUP6 ADD CALLDATALOAD PUSH8 0xFFFFFFFFFFFFFFFF DUP2 GT ISZERO PUSH2 0x194B JUMPI PUSH2 0x194A PUSH2 0x163D JUMP JUMPDEST JUMPDEST PUSH2 0x1957 DUP8 DUP3 DUP9 ADD PUSH2 0x189E JUMP JUMPDEST SWAP4 POP POP PUSH1 0x40 DUP6 ADD CALLDATALOAD PUSH8 0xFFFFFFFFFFFFFFFF DUP2 GT ISZERO PUSH2 0x1978 JUMPI PUSH2 0x1977 PUSH2 0x163D JUMP JUMPDEST JUMPDEST PUSH2 0x1984 DUP8 DUP3 DUP9 ADD PUSH2 0x17E9 JUMP JUMPDEST SWAP3 POP POP PUSH1 0x60 PUSH2 0x1995 DUP8 DUP3 DUP9 ADD PUSH2 0x18ED JUMP JUMPDEST SWAP2 POP POP SWAP3 SWAP6 SWAP2 SWAP5 POP SWAP3 POP JUMP JUMPDEST PUSH1 0x0 DUP2 SWAP1 POP SWAP2 SWAP1 POP JUMP JUMPDEST PUSH2 0x19B4 DUP2 PUSH2 0x19A1 JUMP JUMPDEST DUP3 MSTORE POP POP JUMP JUMPDEST PUSH1 0x0 PUSH1 0x20 DUP3 ADD SWAP1 POP PUSH2 0x19CF PUSH1 0x0 DUP4 ADD DUP5 PUSH2 0x19AB JUMP JUMPDEST SWAP3 SWAP2 POP POP JUMP JUMPDEST PUSH1 0x0 PUSH1 0x20 DUP3 DUP5 SUB SLT ISZERO PUSH2 0x19EB JUMPI PUSH2 0x19EA PUSH2 0x1638 JUMP JUMPDEST JUMPDEST PUSH1 0x0 PUSH2 0x19F9 DUP5 DUP3 DUP6 ADD PUSH2 0x168B JUMP JUMPDEST SWAP2 POP POP SWAP3 SWAP2 POP POP JUMP JUMPDEST PUSH1 0x0 DUP2 MLOAD SWAP1 POP SWAP2 SWAP1 POP JUMP JUMPDEST PUSH1 0x0 DUP3 DUP3 MSTORE PUSH1 0x20 DUP3 ADD SWAP1 POP SWAP3 SWAP2 POP POP JUMP JUMPDEST PUSH1 0x0 DUP2 SWAP1 POP PUSH1 0x20 DUP3 ADD SWAP1 POP SWAP2 SWAP1 POP JUMP JUMPDEST PUSH2 0x1A37 DUP2 PUSH2 0x19A1 JUMP JUMPDEST DUP3 MSTORE POP POP JUMP JUMPDEST PUSH1 0x0 PUSH2 0x1A49 DUP4 DUP4 PUSH2 0x1A2E JUMP JUMPDEST PUSH1 0x20 DUP4 ADD SWAP1 POP SWAP3 SWAP2 POP POP JUMP JUMPDEST PUSH1 0x0 PUSH1 0x20 DUP3 ADD SWAP1 POP SWAP2 SWAP1 POP JUMP JUMPDEST PUSH1 0x0 PUSH2 0x1A6D DUP3 PUSH2 0x1A02 JUMP JUMPDEST PUSH2 0x1A77 DUP2 DUP6 PUSH2 0x1A0D JUMP JUMPDEST SWAP4 POP PUSH2 0x1A82 DUP4 PUSH2 0x1A1E JUMP JUMPDEST DUP1 PUSH1 0x0 JUMPDEST DUP4 DUP2 LT ISZERO PUSH2 0x1AB3 JUMPI DUP2 MLOAD PUSH2 0x1A9A DUP9 DUP3 PUSH2 0x1A3D JUMP JUMPDEST SWAP8 POP PUSH2 0x1AA5 DUP4 PUSH2 0x1A55 JUMP JUMPDEST SWAP3 POP POP PUSH1 0x1 DUP2 ADD SWAP1 POP PUSH2 0x1A86 JUMP JUMPDEST POP DUP6 SWAP4 POP POP POP POP SWAP3 SWAP2 POP POP JUMP JUMPDEST PUSH1 0x0 PUSH1 0x20 DUP3 ADD SWAP1 POP DUP2 DUP2 SUB PUSH1 0x0 DUP4 ADD MSTORE PUSH2 0x1ADA DUP2 DUP5 PUSH2 0x1A62 JUMP JUMPDEST SWAP1 POP SWAP3 SWAP2 POP POP JUMP JUMPDEST PUSH1 0x0 DUP2 MLOAD SWAP1 POP SWAP2 SWAP1 POP JUMP JUMPDEST PUSH1 0x0 DUP3 DUP3 MSTORE PUSH1 0x20 DUP3 ADD SWAP1 POP SWAP3 SWAP2 POP POP JUMP JUMPDEST PUSH1 0x0 DUP2 SWAP1 POP PUSH1 0x20 DUP3 ADD SWAP1 POP SWAP2 SWAP1 POP JUMP JUMPDEST PUSH1 0x0 DUP2 MLOAD SWAP1 POP SWAP2 SWAP1 POP JUMP JUMPDEST PUSH1 0x0 DUP3 DUP3 MSTORE PUSH1 0x20 DUP3 ADD SWAP1 POP SWAP3 SWAP2 POP POP JUMP JUMPDEST PUSH1 0x0 JUMPDEST DUP4 DUP2 LT ISZERO PUSH2 0x1B48 JUMPI DUP1 DUP3 ADD MLOAD DUP2 DUP5 ADD MSTORE PUSH1 0x20 DUP2 ADD SWAP1 POP PUSH2 0x1B2D JUMP JUMPDEST PUSH1 0x0 DUP5 DUP5 ADD MSTORE POP POP POP POP JUMP JUMPDEST PUSH1 0x0 PUSH2 0x1B5F DUP3 PUSH2 0x1B0E JUMP JUMPDEST PUSH2 0x1B69 DUP2 DUP6 PUSH2 0x1B19 JUMP JUMPDEST SWAP4 POP PUSH2 0x1B79 DUP2 DUP6 PUSH1 0x20 DUP7 ADD PUSH2 0x1B2A JUMP JUMPDEST PUSH2 0x1B82 DUP2 PUSH2 0x16A5 JUMP JUMPDEST DUP5 ADD SWAP2 POP POP SWAP3 SWAP2 POP POP JUMP JUMPDEST PUSH1 0x0 PUSH2 0x1B99 DUP4 DUP4 PUSH2 0x1B54 JUMP JUMPDEST SWAP1 POP SWAP3 SWAP2 POP POP JUMP JUMPDEST PUSH1 0x0 PUSH1 0x20 DUP3 ADD SWAP1 POP SWAP2 SWAP1 POP JUMP JUMPDEST PUSH1 0x0 PUSH2 0x1BB9 DUP3 PUSH2 0x1AE2 JUMP JUMPDEST PUSH2 0x1BC3 DUP2 DUP6 PUSH2 0x1AED JUMP JUMPDEST SWAP4 POP DUP4 PUSH1 0x20 DUP3 MUL DUP6 ADD PUSH2 0x1BD5 DUP6 PUSH2 0x1AFE JUMP JUMPDEST DUP1 PUSH1 0x0 JUMPDEST DUP6 DUP2 LT ISZERO PUSH2 0x1C11 JUMPI DUP5 DUP5 SUB DUP10 MSTORE DUP2 MLOAD PUSH2 0x1BF2 DUP6 DUP3 PUSH2 0x1B8D JUMP JUMPDEST SWAP5 POP PUSH2 0x1BFD DUP4 PUSH2 0x1BA1 JUMP JUMPDEST SWAP3 POP PUSH1 0x20 DUP11 ADD SWAP10 POP POP PUSH1 0x1 DUP2 ADD SWAP1 POP PUSH2 0x1BD9 JUMP JUMPDEST POP DUP3 SWAP8 POP DUP8 SWAP6 POP POP POP POP POP POP SWAP3 SWAP2 POP POP JUMP JUMPDEST PUSH1 0x0 PUSH1 0x20 DUP3 ADD SWAP1 POP DUP2 DUP2 SUB PUSH1 0x0 DUP4 ADD MSTORE PUSH2 0x1C3D DUP2 DUP5 PUSH2 0x1BAE JUMP JUMPDEST SWAP1 POP SWAP3 SWAP2 POP POP JUMP JUMPDEST PUSH1 0x0 DUP1 PUSH1 0x40 DUP4 DUP6 SUB SLT ISZERO PUSH2 0x1C5C JUMPI PUSH2 0x1C5B PUSH2 0x1638 JUMP JUMPDEST JUMPDEST PUSH1 0x0 PUSH2 0x1C6A DUP6 DUP3 DUP7 ADD PUSH2 0x168B JUMP JUMPDEST SWAP3 POP POP PUSH1 0x20 PUSH2 0x1C7B DUP6 DUP3 DUP7 ADD PUSH2 0x18ED JUMP JUMPDEST SWAP2 POP POP SWAP3 POP SWAP3 SWAP1 POP JUMP JUMPDEST PUSH2 0x1C8E DUP2 PUSH2 0x19A1 JUMP JUMPDEST DUP2 EQ PUSH2 0x1C99 JUMPI PUSH1 0x0 DUP1 REVERT JUMPDEST POP JUMP JUMPDEST PUSH1 0x0 DUP2 CALLDATALOAD SWAP1 POP PUSH2 0x1CAB DUP2 PUSH2 0x1C85 JUMP JUMPDEST SWAP3 SWAP2 POP POP JUMP JUMPDEST PUSH1 0x0 PUSH1 0x20 DUP3 DUP5 SUB SLT ISZERO PUSH2 0x1CC7 JUMPI PUSH2 0x1CC6 PUSH2 0x1638 JUMP JUMPDEST JUMPDEST PUSH1 0x0 PUSH2 0x1CD5 DUP5 DUP3 DUP6 ADD PUSH2 0x1C9C JUMP JUMPDEST SWAP2 POP POP SWAP3 SWAP2 POP POP JUMP JUMPDEST PUSH2 0x1CE7 DUP2 PUSH2 0x1662 JUMP JUMPDEST DUP3 MSTORE POP POP JUMP JUMPDEST PUSH2 0x1CF6 DUP2 PUSH2 0x18CC JUMP JUMPDEST DUP3 MSTORE POP POP JUMP JUMPDEST PUSH1 0x0 DUP2 ISZERO ISZERO SWAP1 POP SWAP2 SWAP1 POP JUMP JUMPDEST PUSH2 0x1D11 DUP2 PUSH2 0x1CFC JUMP JUMPDEST DUP3 MSTORE POP POP JUMP JUMPDEST PUSH1 0x0 DUP3 DUP3 MSTORE PUSH1 0x20 DUP3 ADD SWAP1 POP SWAP3 SWAP2 POP POP JUMP JUMPDEST PUSH1 0x0 PUSH2 0x1D33 DUP3 PUSH2 0x1B0E JUMP JUMPDEST PUSH2 0x1D3D DUP2 DUP6 PUSH2 0x1D17 JUMP JUMPDEST SWAP4 POP PUSH2 0x1D4D DUP2 DUP6 PUSH1 0x20 DUP7 ADD PUSH2 0x1B2A JUMP JUMPDEST PUSH2 0x1D56 DUP2 PUSH2 0x16A5 JUMP JUMPDEST DUP5 ADD SWAP2 POP POP SWAP3 SWAP2 POP POP JUMP JUMPDEST PUSH1 0x0 PUSH1 0xE0 DUP3 ADD SWAP1 POP PUSH2 0x1D76 PUSH1 0x0 DUP4 ADD DUP11 PUSH2 0x1CDE JUMP JUMPDEST PUSH2 0x1D83 PUSH1 0x20 DUP4 ADD DUP10 PUSH2 0x1CDE JUMP JUMPDEST PUSH2 0x1D90 PUSH1 0x40 DUP4 ADD DUP9 PUSH2 0x1CED JUMP JUMPDEST PUSH2 0x1D9D PUSH1 0x60 DUP4 ADD DUP8 PUSH2 0x1D08 JUMP JUMPDEST PUSH2 0x1DAA PUSH1 0x80 DUP4 ADD DUP7 PUSH2 0x1D08 JUMP JUMPDEST DUP2 DUP2 SUB PUSH1 0xA0 DUP4 ADD MSTORE PUSH2 0x1DBC DUP2 DUP6 PUSH2 0x1D28 JUMP JUMPDEST SWAP1 POP PUSH2 0x1DCB PUSH1 0xC0 DUP4 ADD DUP5 PUSH2 0x1CED JUMP JUMPDEST SWAP9 SWAP8 POP POP POP POP POP POP POP POP JUMP JUMPDEST PUSH1 0x0 DUP2 SWAP1 POP SWAP2 SWAP1 POP JUMP JUMPDEST PUSH1 0x0 PUSH2 0x1DFC PUSH2 0x1DF7 PUSH2 0x1DF2 DUP5 PUSH2 0x1642 JUMP JUMPDEST PUSH2 0x1DD7 JUMP JUMPDEST PUSH2 0x1642 JUMP JUMPDEST SWAP1 POP SWAP2 SWAP1 POP JUMP JUMPDEST PUSH1 0x0 PUSH2 0x1E0E DUP3 PUSH2 0x1DE1 JUMP JUMPDEST SWAP1 POP SWAP2 SWAP1 POP JUMP JUMPDEST PUSH1 0x0 PUSH2 0x1E20 DUP3 PUSH2 0x1E03 JUMP JUMPDEST SWAP1 POP SWAP2 SWAP1 POP JUMP JUMPDEST PUSH2 0x1E30 DUP2 PUSH2 0x1E15 JUMP JUMPDEST DUP3 MSTORE POP POP JUMP JUMPDEST PUSH1 0x0 PUSH1 0x20 DUP3 ADD SWAP1 POP PUSH2 0x1E4B PUSH1 0x0 DUP4 ADD DUP5 PUSH2 0x1E27 JUMP JUMPDEST SWAP3 SWAP2 POP POP JUMP JUMPDEST PUSH1 0x0 PUSH2 0x100 DUP3 ADD SWAP1 POP PUSH2 0x1E67 PUSH1 0x0 DUP4 ADD DUP12 PUSH2 0x1CDE JUMP JUMPDEST PUSH2 0x1E74 PUSH1 0x20 DUP4 ADD DUP11 PUSH2 0x1CDE JUMP JUMPDEST DUP2 DUP2 SUB PUSH1 0x40 DUP4 ADD MSTORE PUSH2 0x1E86 DUP2 DUP10 PUSH2 0x1BAE JUMP JUMPDEST SWAP1 POP PUSH2 0x1E95 PUSH1 0x60 DUP4 ADD DUP9 PUSH2 0x1CED JUMP JUMPDEST PUSH2 0x1EA2 PUSH1 0x80 DUP4 ADD DUP8 PUSH2 0x1D08 JUMP JUMPDEST PUSH2 0x1EAF PUSH1 0xA0 DUP4 ADD DUP7 PUSH2 0x1D08 JUMP JUMPDEST DUP2 DUP2 SUB PUSH1 0xC0 DUP4 ADD MSTORE PUSH2 0x1EC1 DUP2 DUP6 PUSH2 0x1D28 JUMP JUMPDEST SWAP1 POP PUSH2 0x1ED0 PUSH1 0xE0 DUP4 ADD DUP5 PUSH2 0x1CED JUMP JUMPDEST SWAP10 SWAP9 POP POP POP POP POP POP POP POP POP JUMP JUMPDEST PUSH32 0x496E76616C696420726563697069656E74206164647265737300000000000000 PUSH1 0x0 DUP3 ADD MSTORE POP JUMP JUMPDEST PUSH1 0x0 PUSH2 0x1F13 PUSH1 0x19 DUP4 PUSH2 0x1D17 JUMP JUMPDEST SWAP2 POP PUSH2 0x1F1E DUP3 PUSH2 0x1EDD JUMP JUMPDEST PUSH1 0x20 DUP3 ADD SWAP1 POP SWAP2 SWAP1 POP JUMP JUMPDEST PUSH1 0x0 PUSH1 0x20 DUP3 ADD SWAP1 POP DUP2 DUP2 SUB PUSH1 0x0 DUP4 ADD MSTORE PUSH2 0x1F42 DUP2 PUSH2 0x1F06 JUMP JUMPDEST SWAP1 POP SWAP2 SWAP1 POP JUMP JUMPDEST PUSH32 0x43616E6E6F74207472616E7366657220746F20796F757273656C660000000000 PUSH1 0x0 DUP3 ADD MSTORE POP JUMP JUMPDEST PUSH1 0x0 PUSH2 0x1F7F PUSH1 0x1B DUP4 PUSH2 0x1D17 JUMP JUMPDEST SWAP2 POP PUSH2 0x1F8A DUP3 PUSH2 0x1F49 JUMP JUMPDEST PUSH1 0x20 DUP3 ADD SWAP1 POP SWAP2 SWAP1 POP JUMP JUMPDEST PUSH1 0x0 PUSH1 0x20 DUP3 ADD SWAP1 POP DUP2 DUP2 SUB PUSH1 0x0 DUP4 ADD MSTORE PUSH2 0x1FAE DUP2 PUSH2 0x1F72 JUMP JUMPDEST SWAP1 POP SWAP2 SWAP1 POP JUMP JUMPDEST PUSH32 0x4E6F207265636F72647320737065636966696564000000000000000000000000 PUSH1 0x0 DUP3 ADD MSTORE POP JUMP JUMPDEST PUSH1 0x0 PUSH2 0x1FEB PUSH1 0x14 DUP4 PUSH2 0x1D17 JUMP JUMPDEST SWAP2 POP PUSH2 0x1FF6 DUP3 PUSH2 0x1FB5 JUMP JUMPDEST PUSH1 0x20 DUP3 ADD SWAP1 POP SWAP2 SWAP1 POP JUMP JUMPDEST PUSH1 0x0 PUSH1 0x20 DUP3 ADD SWAP1 POP DUP2 DUP2 SUB PUSH1 0x0 DUP4 ADD MSTORE PUSH2 0x201A DUP2 PUSH2 0x1FDE JUMP JUMPDEST SWAP1 POP SWAP2 SWAP1 POP JUMP JUMPDEST PUSH32 0x4475726174696F6E206D757374206265206265747765656E203120616E642037 PUSH1 0x0 DUP3 ADD MSTORE PUSH32 0x323020686F757273000000000000000000000000000000000000000000000000 PUSH1 0x20 DUP3 ADD MSTORE POP JUMP JUMPDEST PUSH1 0x0 PUSH2 0x207D PUSH1 0x28 DUP4 PUSH2 0x1D17 JUMP JUMPDEST SWAP2 POP PUSH2 0x2088 DUP3 PUSH2 0x2021 JUMP JUMPDEST PUSH1 0x40 DUP3 ADD SWAP1 POP SWAP2 SWAP1 POP JUMP JUMPDEST PUSH1 0x0 PUSH1 0x20 DUP3 ADD SWAP1 POP DUP2 DUP2 SUB PUSH1 0x0 DUP4 ADD MSTORE PUSH2 0x20AC DUP2 PUSH2 0x2070 JUMP JUMPDEST SWAP1 POP SWAP2 SWAP1 POP JUMP JUMPDEST PUSH1 0x0 PUSH1 0x20 DUP3 ADD SWAP1 POP PUSH2 0x20C8 PUSH1 0x0 DUP4 ADD DUP5 PUSH2 0x1CDE JUMP JUMPDEST SWAP3 SWAP2 POP POP JUMP JUMPDEST PUSH1 0x0 PUSH2 0x20E1 PUSH2 0x20DC DUP5 PUSH2 0x1767 JUMP JUMPDEST PUSH2 0x1716 JUMP JUMPDEST SWAP1 POP DUP3 DUP2 MSTORE PUSH1 0x20 DUP2 ADD DUP5 DUP5 DUP5 ADD GT ISZERO PUSH2 0x20FD JUMPI PUSH2 0x20FC PUSH2 0x1762 JUMP JUMPDEST JUMPDEST PUSH2 0x2108 DUP5 DUP3 DUP6 PUSH2 0x1B2A JUMP JUMPDEST POP SWAP4 SWAP3 POP POP POP JUMP JUMPDEST PUSH1 0x0 DUP3 PUSH1 0x1F DUP4 ADD SLT PUSH2 0x2125 JUMPI PUSH2 0x2124 PUSH2 0x16A0 JUMP JUMPDEST JUMPDEST DUP2 MLOAD PUSH2 0x2135 DUP5 DUP3 PUSH1 0x20 DUP7 ADD PUSH2 0x20CE JUMP JUMPDEST SWAP2 POP POP SWAP3 SWAP2 POP POP JUMP JUMPDEST PUSH1 0x0 PUSH2 0x2151 PUSH2 0x214C DUP5 PUSH2 0x1731 JUMP JUMPDEST PUSH2 0x1716 JUMP JUMPDEST SWAP1 POP DUP1 DUP4 DUP3 MSTORE PUSH1 0x20 DUP3 ADD SWAP1 POP PUSH1 0x20 DUP5 MUL DUP4 ADD DUP6 DUP2 GT ISZERO PUSH2 0x2174 JUMPI PUSH2 0x2173 PUSH2 0x175D JUMP JUMPDEST JUMPDEST DUP4 JUMPDEST DUP2 DUP2 LT ISZERO PUSH2 0x21BB JUMPI DUP1 MLOAD PUSH8 0xFFFFFFFFFFFFFFFF DUP2 GT ISZERO PUSH2 0x2199 JUMPI PUSH2 0x2198 PUSH2 0x16A0 JUMP JUMPDEST JUMPDEST DUP1 DUP7 ADD PUSH2 0x21A6 DUP10 DUP3 PUSH2 0x2110 JUMP JUMPDEST DUP6 MSTORE PUSH1 0x20 DUP6 ADD SWAP5 POP POP POP PUSH1 0x20 DUP2 ADD SWAP1 POP PUSH2 0x2176 JUMP JUMPDEST POP POP POP SWAP4 SWAP3 POP POP POP JUMP JUMPDEST PUSH1 0x0 DUP3 PUSH1 0x1F DUP4 ADD SLT PUSH2 0x21DA JUMPI PUSH2 0x21D9 PUSH2 0x16A0 JUMP JUMPDEST JUMPDEST DUP2 MLOAD PUSH2 0x21EA DUP5 DUP3 PUSH1 0x20 DUP7 ADD PUSH2 0x213E JUMP JUMPDEST SWAP2 POP POP SWAP3 SWAP2 POP POP JUMP JUMPDEST PUSH1 0x0 PUSH1 0x20 DUP3 DUP5 SUB SLT ISZERO PUSH2 0x2209 JUMPI PUSH2 0x2208 PUSH2 0x1638 JUMP JUMPDEST JUMPDEST PUSH1 0x0 DUP3 ADD MLOAD PUSH8 0xFFFFFFFFFFFFFFFF DUP2 GT ISZERO PUSH2 0x2227 JUMPI PUSH2 0x2226 PUSH2 0x163D JUMP JUMPDEST JUMPDEST PUSH2 0x2233 DUP5 DUP3 DUP6 ADD PUSH2 0x21C5 JUMP JUMPDEST SWAP2 POP POP SWAP3 SWAP2 POP POP JUMP JUMPDEST PUSH32 0x4E487B7100000000000000000000000000000000000000000000000000000000 PUSH1 0x0 MSTORE PUSH1 0x32 PUSH1 0x4 MSTORE PUSH1 0x24 PUSH1 0x0 REVERT JUMPDEST PUSH32 0x50617469656E7420646F6573206E6F74206F776E206F6E65206F72206D6F7265 PUSH1 0x0 DUP3 ADD MSTORE PUSH32 0x20737065636966696564207265636F7264730000000000000000000000000000 PUSH1 0x20 DUP3 ADD MSTORE POP JUMP JUMPDEST PUSH1 0x0 PUSH2 0x22C7 PUSH1 0x32 DUP4 PUSH2 0x1D17 JUMP JUMPDEST SWAP2 POP PUSH2 0x22D2 DUP3 PUSH2 0x226B JUMP JUMPDEST PUSH1 0x40 DUP3 ADD SWAP1 POP SWAP2 SWAP1 POP JUMP JUMPDEST PUSH1 0x0 PUSH1 0x20 DUP3 ADD SWAP1 POP DUP2 DUP2 SUB PUSH1 0x0 DUP4 ADD MSTORE PUSH2 0x22F6 DUP2 PUSH2 0x22BA JUMP JUMPDEST SWAP1 POP SWAP2 SWAP1 POP JUMP JUMPDEST PUSH1 0x0 PUSH1 0x80 DUP3 ADD SWAP1 POP PUSH2 0x2312 PUSH1 0x0 DUP4 ADD DUP8 PUSH2 0x1CDE JUMP JUMPDEST PUSH2 0x231F PUSH1 0x20 DUP4 ADD DUP7 PUSH2 0x1CDE JUMP JUMPDEST PUSH2 0x232C PUSH1 0x40 DUP4 ADD DUP6 PUSH2 0x1CED JUMP JUMPDEST DUP2 DUP2 SUB PUSH1 0x60 DUP4 ADD MSTORE PUSH2 0x233E DUP2 DUP5 PUSH2 0x1BAE JUMP JUMPDEST SWAP1 POP SWAP6 SWAP5 POP POP POP POP POP JUMP JUMPDEST PUSH32 0x4E487B7100000000000000000000000000000000000000000000000000000000 PUSH1 0x0 MSTORE PUSH1 0x11 PUSH1 0x4 MSTORE PUSH1 0x24 PUSH1 0x0 REVERT JUMPDEST PUSH1 0x0 PUSH2 0x2383 DUP3 PUSH2 0x18CC JUMP JUMPDEST SWAP2 POP PUSH2 0x238E DUP4 PUSH2 0x18CC JUMP JUMPDEST SWAP3 POP DUP3 DUP3 MUL PUSH2 0x239C DUP2 PUSH2 0x18CC JUMP JUMPDEST SWAP2 POP DUP3 DUP3 DIV DUP5 EQ DUP4 ISZERO OR PUSH2 0x23B3 JUMPI PUSH2 0x23B2 PUSH2 0x2349 JUMP JUMPDEST JUMPDEST POP SWAP3 SWAP2 POP POP JUMP JUMPDEST PUSH1 0x0 PUSH2 0x23C5 DUP3 PUSH2 0x18CC JUMP JUMPDEST SWAP2 POP PUSH2 0x23D0 DUP4 PUSH2 0x18CC JUMP JUMPDEST SWAP3 POP DUP3 DUP3 ADD SWAP1 POP DUP1 DUP3 GT ISZERO PUSH2 0x23E8 JUMPI PUSH2 0x23E7 PUSH2 0x2349 JUMP JUMPDEST JUMPDEST SWAP3 SWAP2 POP POP JUMP JUMPDEST PUSH32 0x4E487B7100000000000000000000000000000000000000000000000000000000 PUSH1 0x0 MSTORE PUSH1 0x22 PUSH1 0x4 MSTORE PUSH1 0x24 PUSH1 0x0 REVERT JUMPDEST PUSH1 0x0 PUSH1 0x2 DUP3 DIV SWAP1 POP PUSH1 0x1 DUP3 AND DUP1 PUSH2 0x2435 JUMPI PUSH1 0x7F DUP3 AND SWAP2 POP JUMPDEST PUSH1 0x20 DUP3 LT DUP2 SUB PUSH2 0x2448 JUMPI PUSH2 0x2447 PUSH2 0x23EE JUMP JUMPDEST JUMPDEST POP SWAP2 SWAP1 POP JUMP JUMPDEST PUSH1 0x0 DUP2 SWAP1 POP DUP2 PUSH1 0x0 MSTORE PUSH1 0x20 PUSH1 0x0 KECCAK256 SWAP1 POP SWAP2 SWAP1 POP JUMP JUMPDEST PUSH1 0x0 PUSH1 0x20 PUSH1 0x1F DUP4 ADD DIV SWAP1 POP SWAP2 SWAP1 POP JUMP JUMPDEST PUSH1 0x0 DUP3 DUP3 SHL SWAP1 POP SWAP3 SWAP2 POP POP JUMP JUMPDEST PUSH1 0x0 PUSH1 0x8 DUP4 MUL PUSH2 0x24B0 PUSH32 0xFFFFFFFFFFFFFFFFFFFFFFFFFFFFFFFFFFFFFFFFFFFFFFFFFFFFFFFFFFFFFFFF DUP3 PUSH2 0x2473 JUMP JUMPDEST PUSH2 0x24BA DUP7 DUP4 PUSH2 0x2473 JUMP JUMPDEST SWAP6 POP DUP1 NOT DUP5 AND SWAP4 POP DUP1 DUP7 AND DUP5 OR SWAP3 POP POP POP SWAP4 SWAP3 POP POP POP JUMP JUMPDEST PUSH1 0x0 PUSH2 0x24ED PUSH2 0x24E8 PUSH2 0x24E3 DUP5 PUSH2 0x18CC JUMP JUMPDEST PUSH2 0x1DD7 JUMP JUMPDEST PUSH2 0x18CC JUMP JUMPDEST SWAP1 POP SWAP2 SWAP1 POP JUMP JUMPDEST PUSH1 0x0 DUP2 SWAP1 POP SWAP2 SWAP1 POP JUMP JUMPDEST PUSH2 0x2507 DUP4 PUSH2 0x24D2 JUMP JUMPDEST PUSH2 0x251B PUSH2 0x2513 DUP3 PUSH2 0x24F4 JUMP JUMPDEST DUP5 DUP5 SLOAD PUSH2 0x2480 JUMP JUMPDEST DUP3 SSTORE POP POP POP POP JUMP JUMPDEST PUSH1 0x0 SWAP1 JUMP JUMPDEST PUSH2 0x2530 PUSH2 0x2523 JUMP JUMPDEST PUSH2 0x253B DUP2 DUP5 DUP5 PUSH2 0x24FE JUMP JUMPDEST POP POP POP JUMP JUMPDEST JUMPDEST DUP2 DUP2 LT ISZERO PUSH2 0x255F JUMPI PUSH2 0x2554 PUSH1 0x0 DUP3 PUSH2 0x2528 JUMP JUMPDEST PUSH1 0x1 DUP2 ADD SWAP1 POP PUSH2 0x2541 JUMP JUMPDEST POP POP JUMP JUMPDEST PUSH1 0x1F DUP3 GT ISZERO PUSH2 0x25A4 JUMPI PUSH2 0x2575 DUP2 PUSH2 0x244E JUMP JUMPDEST PUSH2 0x257E DUP5 PUSH2 0x2463 JUMP JUMPDEST DUP2 ADD PUSH1 0x20 DUP6 LT ISZERO PUSH2 0x258D JUMPI DUP2 SWAP1 POP JUMPDEST PUSH2 0x25A1 PUSH2 0x2599 DUP6 PUSH2 0x2463 JUMP JUMPDEST DUP4 ADD DUP3 PUSH2 0x2540 JUMP JUMPDEST POP POP JUMPDEST POP POP POP JUMP JUMPDEST PUSH1 0x0 DUP3 DUP3 SHR SWAP1 POP SWAP3 SWAP2 POP POP JUMP JUMPDEST PUSH1 0x0 PUSH2 0x25C7 PUSH1 0x0 NOT DUP5 PUSH1 0x8 MUL PUSH2 0x25A9 JUMP JUMPDEST NOT DUP1 DUP4 AND SWAP2 POP POP SWAP3 SWAP2 POP POP JUMP JUMPDEST PUSH1 0x0 PUSH2 0x25E0 DUP4 DUP4 PUSH2 0x25B6 JUMP JUMPDEST SWAP2 POP DUP3 PUSH1 0x2 MUL DUP3 OR SWAP1 POP SWAP3 SWAP2 POP POP JUMP JUMPDEST PUSH2 0x25F9 DUP3 PUSH2 0x1B0E JUMP JUMPDEST PUSH8 0xFFFFFFFFFFFFFFFF DUP2 GT ISZERO PUSH2 0x2612 JUMPI PUSH2 0x2611 PUSH2 0x16B6 JUMP JUMPDEST JUMPDEST PUSH2 0x261C DUP3 SLOAD PUSH2 0x241D JUMP JUMPDEST PUSH2 0x2627 DUP3 DUP3 DUP6 PUSH2 0x2563 JUMP JUMPDEST PUSH1 0x0 PUSH1 0x20 SWAP1 POP PUSH1 0x1F DUP4 GT PUSH1 0x1 DUP2 EQ PUSH2 0x265A JUMPI PUSH1 0x0 DUP5 ISZERO PUSH2 0x2648 JUMPI DUP3 DUP8 ADD MLOAD SWAP1 POP JUMPDEST PUSH2 0x2652 DUP6 DUP3 PUSH2 0x25D4 JUMP JUMPDEST DUP7 SSTORE POP PUSH2 0x26BA JUMP JUMPDEST PUSH1 0x1F NOT DUP5 AND PUSH2 0x2668 DUP7 PUSH2 0x244E JUMP JUMPDEST PUSH1 0x0 JUMPDEST DUP3 DUP2 LT ISZERO PUSH2 0x2690 JUMPI DUP5 DUP10 ADD MLOAD DUP3 SSTORE PUSH1 0x1 DUP3 ADD SWAP2 POP PUSH1 0x20 DUP6 ADD SWAP5 POP PUSH1 0x20 DUP2 ADD SWAP1 POP PUSH2 0x266B JUMP JUMPDEST DUP7 DUP4 LT ISZERO PUSH2 0x26AD JUMPI DUP5 DUP10 ADD MLOAD PUSH2 0x26A9 PUSH1 0x1F DUP10 AND DUP3 PUSH2 0x25B6 JUMP JUMPDEST DUP4 SSTORE POP JUMPDEST PUSH1 0x1 PUSH1 0x2 DUP9 MUL ADD DUP9 SSTORE POP POP POP JUMPDEST POP POP POP POP POP POP JUMP JUMPDEST PUSH1 0x0 PUSH1 0x80 DUP3 ADD SWAP1 POP DUP2 DUP2 SUB PUSH1 0x0 DUP4 ADD MSTORE PUSH2 0x26DC DUP2 DUP8 PUSH2 0x1BAE JUMP JUMPDEST SWAP1 POP PUSH2 0x26EB PUSH1 0x20 DUP4 ADD DUP7 PUSH2 0x1CED JUMP JUMPDEST DUP2 DUP2 SUB PUSH1 0x40 DUP4 ADD MSTORE PUSH2 0x26FD DUP2 DUP6 PUSH2 0x1D28 JUMP JUMPDEST SWAP1 POP PUSH2 0x270C PUSH1 0x60 DUP4 ADD DUP5 PUSH2 0x1CED JUMP JUMPDEST SWAP6 SWAP5 POP POP POP POP POP JUMP JUMPDEST PUSH32 0x4F6E6C792070617469656E742063616E2072656A656374207472616E73666572 PUSH1 0x0 DUP3 ADD MSTORE POP JUMP JUMPDEST PUSH1 0x0 PUSH2 0x274B PUSH1 0x20 DUP4 PUSH2 0x1D17 JUMP JUMPDEST SWAP2 POP PUSH2 0x2756 DUP3 PUSH2 0x2715 JUMP JUMPDEST PUSH1 0x20 DUP3 ADD SWAP1 POP SWAP2 SWAP1 POP JUMP JUMPDEST PUSH1 0x0 PUSH1 0x20 DUP3 ADD SWAP1 POP DUP2 DUP2 SUB PUSH1 0x0 DUP4 ADD MSTORE PUSH2 0x277A DUP2 PUSH2 0x273E JUMP JUMPDEST SWAP1 POP SWAP2 SWAP1 POP JUMP JUMPDEST PUSH32 0x5472616E7366657220616C726561647920636F6D706C65746564000000000000 PUSH1 0x0 DUP3 ADD MSTORE POP JUMP JUMPDEST PUSH1 0x0 PUSH2 0x27B7 PUSH1 0x1A DUP4 PUSH2 0x1D17 JUMP JUMPDEST SWAP2 POP PUSH2 0x27C2 DUP3 PUSH2 0x2781 JUMP JUMPDEST PUSH1 0x20 DUP3 ADD SWAP1 POP SWAP2 SWAP1 POP JUMP JUMPDEST PUSH1 0x0 PUSH1 0x20 DUP3 ADD SWAP1 POP DUP2 DUP2 SUB PUSH1 0x0 DUP4 ADD MSTORE PUSH2 0x27E6 DUP2 PUSH2 0x27AA JUMP JUMPDEST SWAP1 POP SWAP2 SWAP1 POP JUMP JUMPDEST PUSH1 0x0 PUSH1 0x20 DUP3 ADD SWAP1 POP PUSH2 0x2802 PUSH1 0x0 DUP4 ADD DUP5 PUSH2 0x1CED JUMP JUMPDEST SWAP3 SWAP2 POP POP JUMP JUMPDEST PUSH32 0x4F6E6C7920726563697069656E742063616E20636F6D706C657465207472616E PUSH1 0x0 DUP3 ADD MSTORE PUSH32 0x7366657200000000000000000000000000000000000000000000000000000000 PUSH1 0x20 DUP3 ADD MSTORE POP JUMP JUMPDEST PUSH1 0x0 PUSH2 0x2864 PUSH1 0x24 DUP4 PUSH2 0x1D17 JUMP JUMPDEST SWAP2 POP PUSH2 0x286F DUP3 PUSH2 0x2808 JUMP JUMPDEST PUSH1 0x40 DUP3 ADD SWAP1 POP SWAP2 SWAP1 POP JUMP JUMPDEST PUSH1 0x0 PUSH1 0x20 DUP3 ADD SWAP1 POP DUP2 DUP2 SUB PUSH1 0x0 DUP4 ADD MSTORE PUSH2 0x2893 DUP2 PUSH2 0x2857 JUMP JUMPDEST SWAP1 POP SWAP2 SWAP1 POP JUMP JUMPDEST PUSH32 0x5472616E73666572206E6F7420617070726F7665642062792070617469656E74 PUSH1 0x0 DUP3 ADD MSTORE POP JUMP JUMPDEST PUSH1 0x0 PUSH2 0x28D0 PUSH1 0x20 DUP4 PUSH2 0x1D17 JUMP JUMPDEST SWAP2 POP PUSH2 0x28DB DUP3 PUSH2 0x289A JUMP JUMPDEST PUSH1 0x20 DUP3 ADD SWAP1 POP SWAP2 SWAP1 POP JUMP JUMPDEST PUSH1 0x0 PUSH1 0x20 DUP3 ADD SWAP1 POP DUP2 DUP2 SUB PUSH1 0x0 DUP4 ADD MSTORE PUSH2 0x28FF DUP2 PUSH2 0x28C3 JUMP JUMPDEST SWAP1 POP SWAP2 SWAP1 POP JUMP JUMPDEST PUSH32 0x5472616E73666572207265717565737420657870697265640000000000000000 PUSH1 0x0 DUP3 ADD MSTORE POP JUMP JUMPDEST PUSH1 0x0 PUSH2 0x293C PUSH1 0x18 DUP4 PUSH2 0x1D17 JUMP JUMPDEST SWAP2 POP PUSH2 0x2947 DUP3 PUSH2 0x2906 JUMP JUMPDEST PUSH1 0x20 DUP3 ADD SWAP1 POP SWAP2 SWAP1 POP JUMP JUMPDEST PUSH1 0x0 PUSH1 0x20 DUP3 ADD SWAP1 POP DUP2 DUP2 SUB PUSH1 0x0 DUP4 ADD MSTORE PUSH2 0x296B DUP2 PUSH2 0x292F JUMP JUMPDEST SWAP1 POP SWAP2 SWAP1 POP JUMP JUMPDEST PUSH32 0x4F6E6C792070617469656E742063616E20617070726F7665207472616E736665 PUSH1 0x0 DUP3 ADD MSTORE PUSH32 0x7200000000000000000000000000000000000000000000000000000000000000 PUSH1 0x20 DUP3 ADD MSTORE POP JUMP JUMPDEST PUSH1 0x0 PUSH2 0x29CE PUSH1 0x21 DUP4 PUSH2 0x1D17 JUMP JUMPDEST SWAP2 POP PUSH2 0x29D9 DUP3 PUSH2 0x2972 JUMP JUMPDEST PUSH1 0x40 DUP3 ADD SWAP1 POP SWAP2 SWAP1 POP JUMP JUMPDEST PUSH1 0x0 PUSH1 0x20 DUP3 ADD SWAP1 POP DUP2 DUP2 SUB PUSH1 0x0 DUP4 ADD MSTORE PUSH2 0x29FD DUP2 PUSH2 0x29C1 JUMP JUMPDEST SWAP1 POP SWAP2 SWAP1 POP JUMP JUMPDEST PUSH32 0x5472616E7366657220616C726561647920617070726F76656400000000000000 PUSH1 0x0 DUP3 ADD MSTORE POP JUMP JUMPDEST PUSH1 0x0 PUSH2 0x2A3A PUSH1 0x19 DUP4 PUSH2 0x1D17 JUMP JUMPDEST SWAP2 POP PUSH2 0x2A45 DUP3 PUSH2 0x2A04 JUMP JUMPDEST PUSH1 0x20 DUP3 ADD SWAP1 POP SWAP2 SWAP1 POP JUMP JUMPDEST PUSH1 0x0 PUSH1 0x20 DUP3 ADD SWAP1 POP DUP2 DUP2 SUB PUSH1 0x0 DUP4 ADD MSTORE PUSH2 0x2A69 DUP2 PUSH2 0x2A2D JUMP JUMPDEST SWAP1 POP SWAP2 SWAP1 POP JUMP INVALID LOG2 PUSH5 0x6970667358 0x22 SLT KECCAK256 EXTCODECOPY POP INVALID LOG3 0xA8 DUP2 PUSH11 0xAA1920389F126AA39E09D8 PUSH9 0x4B4E9DB23BA752A40E EXP 0x27 0x4B 0xE3 PUSH5 0x736F6C6343 STOP ADDMOD SHR STOP CALLER "},"methodIdentifiers":{"approveTransfer(bytes32)":"ba33984a","completeTransfer(bytes32)":"a1febf81","getPatientRecords(address)":"18bd4847","getPatientTransfers(address)":"de9b19df","getRecipientTransfers(address)":"04233456","getTransferRequest(bytes32)":"c8f3ac2a","medicalRecords()":"b33acaac","patientTransfers(address,uint256)":"45067e7a","recipientTransfers(address,uint256)":"9cb80f00","rejectTransfer(bytes32)":"7fbeb89c","requestTransfer(address,string[],string,uint256)":"02aaefb0","transferRequests(bytes32)":"97adc59a"}}}}}