{
  "_format": "hh3-artifact-1",
  "contractName": "HealthConsent",
  "sourceName": "contracts/HealthConsent.sol",
  "abi": [
    {
      "anonymous": false,
      "inputs": [
        {
          "indexed": true,
          "internalType": "address",
          "name": "patient",
          "type": "address"
        },
        {
          "indexed": false,
          "internalType": "uint256",
          "name": "timestamp",
          "type": "uint256"
        },
        {
          "indexed": false,
          "internalType": "string",
          "name": "consentHash",
          "type": "string"
        }
      ],
      "name": "ConsentSigned",
      "type": "event"
    },
    {
      "inputs": [
        {
          "internalType": "address",
          "name": "_patient",
          "type": "address"
        }
      ],
      "name": "getConsent",
      "outputs": [
        {
          "internalType": "bool",
          "name": "",
          "type": "bool"
        },
        {
          "internalType": "uint256",
          "name": "",
          "type": "uint256"
        },
        {
          "internalType": "string",
          "name": "",
          "type": "string"
        }
      ],
      "stateMutability": "view",
      "type": "function"
    },
    {
      "inputs": [
        {
          "internalType": "address",
          "name": "_patient",
          "type": "address"
        },
        {
          "internalType": "string",
          "name": "_consentHash",
          "type": "string"
        }
      ],
      "name": "signConsent",
      "outputs": [
        {
          "internalType": "bool",
          "name": "",
          "type": "bool"
        }
      ],
      "stateMutability": "nonpayable",
      "type": "function"
    }
  ],
  "bytecode": "0x6080604052348015600f57600080fd5b50610b4a8061001f6000396000f3fe608060405234801561001057600080fd5b50600436106100365760003560e01c8063970e4ed21461003b578063c5fe2acc1461006d575b600080fd5b6100556004803603810190610050919061042d565b61009d565b6040516100649392919061051e565b60405180910390f35b61008760048036038101906100829190610691565b6101c3565b60405161009491906106ed565b60405180910390f35b600080606060008060008673ffffffffffffffffffffffffffffffffffffffff1673ffffffffffffffffffffffffffffffffffffffff1681526020019081526020016000206040518060600160405290816000820160009054906101000a900460ff161515151581526020016001820154815260200160028201805461012290610737565b80601f016020809104026020016040519081016040528092919081815260200182805461014e90610737565b801561019b5780601f106101705761010080835404028352916020019161019b565b820191906000526020600020905b81548152906001019060200180831161017e57829003601f168201915b5050505050815250509050806000015181602001518260400151935093509350509193909250565b60008273ffffffffffffffffffffffffffffffffffffffff163373ffffffffffffffffffffffffffffffffffffffff1614610233576040517f08c379a000000000000000000000000000000000000000000000000000000000815260040161022a906107da565b60405180910390fd5b6000808473ffffffffffffffffffffffffffffffffffffffff1673ffffffffffffffffffffffffffffffffffffffff16815260200190815260200160002060000160009054906101000a900460ff16156102c2576040517f08c379a00000000000000000000000000000000000000000000000000000000081526004016102b990610846565b60405180910390fd5b6040518060600160405280600115158152602001428152602001838152506000808573ffffffffffffffffffffffffffffffffffffffff1673ffffffffffffffffffffffffffffffffffffffff16815260200190815260200160002060008201518160000160006101000a81548160ff02191690831515021790555060208201518160010155604082015181600201908161035d9190610a12565b509050508273ffffffffffffffffffffffffffffffffffffffff167f843d81d77375573e7d936fd28b9a81cc88305d5a29b79708154c9dd5aab4286c42846040516103a9929190610ae4565b60405180910390a26001905092915050565b6000604051905090565b600080fd5b600080fd5b600073ffffffffffffffffffffffffffffffffffffffff82169050919050565b60006103fa826103cf565b9050919050565b61040a816103ef565b811461041557600080fd5b50565b60008135905061042781610401565b92915050565b600060208284031215610443576104426103c5565b5b600061045184828501610418565b91505092915050565b60008115159050919050565b61046f8161045a565b82525050565b6000819050919050565b61048881610475565b82525050565b600081519050919050565b600082825260208201905092915050565b60005b838110156104c85780820151818401526020810190506104ad565b60008484015250505050565b6000601f19601f8301169050919050565b60006104f08261048e565b6104fa8185610499565b935061050a8185602086016104aa565b610513816104d4565b840191505092915050565b60006060820190506105336000830186610466565b610540602083018561047f565b818103604083015261055281846104e5565b9050949350505050565b600080fd5b600080fd5b7f4e487b7100000000000000000000000000000000000000000000000000000000600052604160045260246000fd5b61059e826104d4565b810181811067ffffffffffffffff821117156105bd576105bc610566565b5b80604052505050565b60006105d06103bb565b90506105dc8282610595565b919050565b600067ffffffffffffffff8211156105fc576105fb610566565b5b610605826104d4565b9050602081019050919050565b82818337600083830152505050565b600061063461062f846105e1565b6105c6565b9050828152602081018484840111156106505761064f610561565b5b61065b848285610612565b509392505050565b600082601f8301126106785761067761055c565b5b8135610688848260208601610621565b91505092915050565b600080604083850312156106a8576106a76103c5565b5b60006106b685828601610418565b925050602083013567ffffffffffffffff8111156106d7576106d66103ca565b5b6106e385828601610663565b9150509250929050565b60006020820190506107026000830184610466565b92915050565b7f4e487b7100000000000000000000000000000000000000000000000000000000600052602260045260246000fd5b6000600282049050600182168061074f57607f821691505b60208210810361076257610761610708565b5b50919050565b7f4f6e6c79207468652070617469656e742063616e207369676e2074686569722060008201527f6f776e20636f6e73656e74000000000000000000000000000000000000000000602082015250565b60006107c4602b83610499565b91506107cf82610768565b604082019050919050565b600060208201905081810360008301526107f3816107b7565b9050919050565b7f436f6e73656e7420616c7265616479207369676e656400000000000000000000600082015250565b6000610830601683610499565b915061083b826107fa565b602082019050919050565b6000602082019050818103600083015261085f81610823565b9050919050565b60008190508160005260206000209050919050565b60006020601f8301049050919050565b600082821b905092915050565b6000600883026108c87fffffffffffffffffffffffffffffffffffffffffffffffffffffffffffffffff8261088b565b6108d2868361088b565b95508019841693508086168417925050509392505050565b6000819050919050565b600061090f61090a61090584610475565b6108ea565b610475565b9050919050565b6000819050919050565b610929836108f4565b61093d61093582610916565b848454610898565b825550505050565b600090565b610952610945565b61095d818484610920565b505050565b5b818110156109815761097660008261094a565b600181019050610963565b5050565b601f8211156109c65761099781610866565b6109a08461087b565b810160208510156109af578190505b6109c36109bb8561087b565b830182610962565b50505b505050565b600082821c905092915050565b60006109e9600019846008026109cb565b1980831691505092915050565b6000610a0283836109d8565b9150826002028217905092915050565b610a1b8261048e565b67ffffffffffffffff811115610a3457610a33610566565b5b610a3e8254610737565b610a49828285610985565b600060209050601f831160018114610a7c5760008415610a6a578287015190505b610a7485826109f6565b865550610adc565b601f198416610a8a86610866565b60005b82811015610ab257848901518255600182019150602085019450602081019050610a8d565b86831015610acf5784890151610acb601f8916826109d8565b8355505b6001600288020188555050505b505050505050565b6000604082019050610af9600083018561047f565b8181036020830152610b0b81846104e5565b9050939250505056fea2646970667358221220865954900943d2ee72fa8cf6493161b7d61925b819cdcc2cc96eb2e734c0dcc364736f6c634300081c0033",
  "linkReferences": {},
  "deployedLinkReferences": {},
  "immutableReferences": {},
  "inputSourceName": "project/contracts/HealthConsent.sol",
  "buildInfoId": "solc-0_8_28-edb59e1c3692e15de38d338d7d361fbe38046433"
}