{
  "_format": "hh3-artifact-1",
  "contractName": "MedicalRecords",
  "sourceName": "contracts/MedicalRecords.sol",
  "abi": [
    {
      "inputs": [
        {
          "internalType": "address",
          "name": "_healthConsentAddress",
          "type": "address"
        }
      ],
      "stateMutability": "nonpayable",
      "type": "constructor"
    },
    {
      "anonymous": false,
      "inputs": [
        {
          "indexed": true,
          "internalType": "address",
          "name": "patient",
          "type": "address"
        },
        {
          "indexed": true,
          "internalType": "address",
          "name": "authorized",
          "type": "address"
        },
        {
          "indexed": false,
          "internalType": "string",
          "name": "ipfsCid",
          "type": "string"
        }
      ],
      "name": "AccessGranted",
      "type": "event"
    },
    {
      "anonymous": false,
      "inputs": [
        {
          "indexed": true,
          "internalType": "address",
          "name": "patient",
          "type": "address"
        },
        {
          "indexed": false,
          "internalType": "uint256",
          "name": "timestamp",
          "type": "uint256"
        },
        {
          "indexed": false,
          "internalType": "string",
          "name": "ipfsCid",
          "type": "string"
        }
      ],
      "name": "RecordUploaded",
      "type": "event"
    },
    {
      "inputs": [
        {
          "internalType": "string",
          "name": "_ipfsCid",
          "type": "string"
        }
      ],
      "name": "getKeyShare",
      "outputs": [
        {
          "internalType": "bytes",
          "name": "",
          "type": "bytes"
        }
      ],
      "stateMutability": "view",
      "type": "function"
    },
    {
      "inputs": [
        {
          "internalType": "address",
          "name": "_patient",
          "type": "address"
        }
      ],
      "name": "getRecords",
      "outputs": [
        {
          "internalType": "string[]",
          "name": "",
          "type": "string[]"
        }
      ],
      "stateMutability": "view",
      "type": "function"
    },
    {
      "inputs": [
        {
          "internalType": "address",
          "name": "_authorized",
          "type": "address"
        },
        {
          "internalType": "string",
          "name": "_ipfsCid",
          "type": "string"
        },
        {
          "internalType": "bytes",
          "name": "_encryptedKeyShare",
          "type": "bytes"
        }
      ],
      "name": "grantAccess",
      "outputs": [],
      "stateMutability": "nonpayable",
      "type": "function"
    },
    {
      "inputs": [],
      "name": "healthConsent",
      "outputs": [
        {
          "internalType": "contract IHealthConsent",
          "name": "",
          "type": "address"
        }
      ],
      "stateMutability": "view",
      "type": "function"
    },
    {
      "inputs": [
        {
          "internalType": "string",
          "name": "_ipfsCid",
          "type": "string"
        },
        {
          "internalType": "bytes",
          "name": "_selfEncryptedKeyShare",
          "type": "bytes"
        }
      ],
      "name": "uploadRecord",
      "outputs": [
        {
          "internalType": "bool",
          "name": "",
          "type": "bool"
        }
      ],
      "stateMutability": "nonpayable",
      "type": "function"
    }
  ],
  "bytecode": "0x608060405234801561001057600080fd5b50604051611cc8380380611cc88339818101604052810190610032919061014a565b600073ffffffffffffffffffffffffffffffffffffffff168173ffffffffffffffffffffffffffffffffffffffff16036100a1576040517f08c379a0000000000000000000000000000000000000000000000000000000008152600401610098906101d4565b60405180910390fd5b806000806101000a81548173ffffffffffffffffffffffffffffffffffffffff021916908373ffffffffffffffffffffffffffffffffffffffff160217905550506101f4565b600080fd5b600073ffffffffffffffffffffffffffffffffffffffff82169050919050565b6000610117826100ec565b9050919050565b6101278161010c565b811461013257600080fd5b50565b6000815190506101448161011e565b92915050565b6000602082840312156101605761015f6100e7565b5b600061016e84828501610135565b91505092915050565b600082825260208201905092915050565b7f496e76616c696420636f6e73656e7420636f6e74726163742061646472657373600082015250565b60006101be602083610177565b91506101c982610188565b602082019050919050565b600060208201905081810360008301526101ed816101b1565b9050919050565b611ac5806102036000396000f3fe608060405234801561001057600080fd5b50600436106100575760003560e01c80634cd39f9a1461005c5780636bb1cae31461007857806375e76b7214610096578063a0076e84146100c6578063aeebe100146100f6575b600080fd5b61007660048036038101906100719190610c9c565b610126565b005b61008061039b565b60405161008d9190610d86565b60405180910390f35b6100b060048036038101906100ab9190610da1565b6103bf565b6040516100bd9190610e69565b60405180910390f35b6100e060048036038101906100db9190610e8b565b6105e6565b6040516100ed9190610fcf565b60405180910390f35b610110600480360381019061010b9190610ff1565b6106fe565b60405161011d9190611084565b60405180910390f35b60003390508073ffffffffffffffffffffffffffffffffffffffff1660038460405161015291906110db565b908152602001604051809103902060009054906101000a900473ffffffffffffffffffffffffffffffffffffffff1673ffffffffffffffffffffffffffffffffffffffff16146101d7576040517f08c379a00000000000000000000000000000000000000000000000000000000081526004016101ce9061114f565b60405180910390fd5b600073ffffffffffffffffffffffffffffffffffffffff168473ffffffffffffffffffffffffffffffffffffffff1603610246576040517f08c379a000000000000000000000000000000000000000000000000000000000815260040161023d906111bb565b60405180910390fd5b600082511161028a576040517f08c379a000000000000000000000000000000000000000000000000000000000815260040161028190611227565b60405180910390fd5b81600260008373ffffffffffffffffffffffffffffffffffffffff1673ffffffffffffffffffffffffffffffffffffffff168152602001908152602001600020846040516102d891906110db565b908152602001604051809103902060008673ffffffffffffffffffffffffffffffffffffffff1673ffffffffffffffffffffffffffffffffffffffff168152602001908152602001600020908161032f9190611453565b508373ffffffffffffffffffffffffffffffffffffffff168173ffffffffffffffffffffffffffffffffffffffff167fc7e5c007251689b9bc3cb624f55714afc5988f3e3b4e20cc6a606d7bad6faeca8560405161038d919061155e565b60405180910390a350505050565b60008054906101000a900473ffffffffffffffffffffffffffffffffffffffff1681565b606060006003836040516103d391906110db565b908152602001604051809103902060009054906101000a900473ffffffffffffffffffffffffffffffffffffffff169050600073ffffffffffffffffffffffffffffffffffffffff168173ffffffffffffffffffffffffffffffffffffffff1603610473576040517f08c379a000000000000000000000000000000000000000000000000000000000815260040161046a906115cc565b60405180910390fd5b6000600260008373ffffffffffffffffffffffffffffffffffffffff1673ffffffffffffffffffffffffffffffffffffffff168152602001908152602001600020846040516104c291906110db565b908152602001604051809103902060003373ffffffffffffffffffffffffffffffffffffffff1673ffffffffffffffffffffffffffffffffffffffff168152602001908152602001600020805461051890611276565b80601f016020809104026020016040519081016040528092919081815260200182805461054490611276565b80156105915780601f1061056657610100808354040283529160200191610591565b820191906000526020600020905b81548152906001019060200180831161057457829003601f168201915b5050505050905060008151116105dc576040517f08c379a00000000000000000000000000000000000000000000000000000000081526004016105d390611638565b60405180910390fd5b8092505050919050565b6060600160008373ffffffffffffffffffffffffffffffffffffffff1673ffffffffffffffffffffffffffffffffffffffff168152602001908152602001600020805480602002602001604051908101604052809291908181526020016000905b828210156106f357838290600052602060002001805461066690611276565b80601f016020809104026020016040519081016040528092919081815260200182805461069290611276565b80156106df5780601f106106b4576101008083540402835291602001916106df565b820191906000526020600020905b8154815290600101906020018083116106c257829003601f168201915b505050505081526020019060010190610647565b505050509050919050565b60008033905060008060009054906101000a900473ffffffffffffffffffffffffffffffffffffffff1673ffffffffffffffffffffffffffffffffffffffff1663970e4ed2836040518263ffffffff1660e01b81526004016107609190611667565b600060405180830381865afa15801561077d573d6000803e3d6000fd5b505050506040513d6000823e3d601f19601f820116820180604052508101906107a6919061174a565b50509050806107ea576040517f08c379a00000000000000000000000000000000000000000000000000000000081526004016107e190611805565b60405180910390fd5b600085511161082e576040517f08c379a000000000000000000000000000000000000000000000000000000000815260040161082590611871565b60405180910390fd5b6000845111610872576040517f08c379a000000000000000000000000000000000000000000000000000000000815260040161086990611903565b60405180910390fd5b600160008373ffffffffffffffffffffffffffffffffffffffff1673ffffffffffffffffffffffffffffffffffffffff168152602001908152602001600020859080600181540180825580915050600190039060005260206000200160009091909190915090816108e3919061197e565b50816003866040516108f591906110db565b908152602001604051809103902060006101000a81548173ffffffffffffffffffffffffffffffffffffffff021916908373ffffffffffffffffffffffffffffffffffffffff16021790555083600260008473ffffffffffffffffffffffffffffffffffffffff1673ffffffffffffffffffffffffffffffffffffffff1681526020019081526020016000208660405161098f91906110db565b908152602001604051809103902060008473ffffffffffffffffffffffffffffffffffffffff1673ffffffffffffffffffffffffffffffffffffffff16815260200190815260200160002090816109e69190611453565b508173ffffffffffffffffffffffffffffffffffffffff167f5ecfbf1e7f7f5ef4109baa2a3726ce1aecb710b577c94cd08a8e5bc9d38639f34287604051610a2f929190611a5f565b60405180910390a260019250505092915050565b6000604051905090565b600080fd5b600080fd5b600073ffffffffffffffffffffffffffffffffffffffff82169050919050565b6000610a8282610a57565b9050919050565b610a9281610a77565b8114610a9d57600080fd5b50565b600081359050610aaf81610a89565b92915050565b600080fd5b600080fd5b6000601f19601f8301169050919050565b7f4e487b7100000000000000000000000000000000000000000000000000000000600052604160045260246000fd5b610b0882610abf565b810181811067ffffffffffffffff82111715610b2757610b26610ad0565b5b80604052505050565b6000610b3a610a43565b9050610b468282610aff565b919050565b600067ffffffffffffffff821115610b6657610b65610ad0565b5b610b6f82610abf565b9050602081019050919050565b82818337600083830152505050565b6000610b9e610b9984610b4b565b610b30565b905082815260208101848484011115610bba57610bb9610aba565b5b610bc5848285610b7c565b509392505050565b600082601f830112610be257610be1610ab5565b5b8135610bf2848260208601610b8b565b91505092915050565b600067ffffffffffffffff821115610c1657610c15610ad0565b5b610c1f82610abf565b9050602081019050919050565b6000610c3f610c3a84610bfb565b610b30565b905082815260208101848484011115610c5b57610c5a610aba565b5b610c66848285610b7c565b509392505050565b600082601f830112610c8357610c82610ab5565b5b8135610c93848260208601610c2c565b91505092915050565b600080600060608486031215610cb557610cb4610a4d565b5b6000610cc386828701610aa0565b935050602084013567ffffffffffffffff811115610ce457610ce3610a52565b5b610cf086828701610bcd565b925050604084013567ffffffffffffffff811115610d1157610d10610a52565b5b610d1d86828701610c6e565b9150509250925092565b6000819050919050565b6000610d4c610d47610d4284610a57565b610d27565b610a57565b9050919050565b6000610d5e82610d31565b9050919050565b6000610d7082610d53565b9050919050565b610d8081610d65565b82525050565b6000602082019050610d9b6000830184610d77565b92915050565b600060208284031215610db757610db6610a4d565b5b600082013567ffffffffffffffff811115610dd557610dd4610a52565b5b610de184828501610bcd565b91505092915050565b600081519050919050565b600082825260208201905092915050565b60005b83811015610e24578082015181840152602081019050610e09565b60008484015250505050565b6000610e3b82610dea565b610e458185610df5565b9350610e55818560208601610e06565b610e5e81610abf565b840191505092915050565b60006020820190508181036000830152610e838184610e30565b905092915050565b600060208284031215610ea157610ea0610a4d565b5b6000610eaf84828501610aa0565b91505092915050565b600081519050919050565b600082825260208201905092915050565b6000819050602082019050919050565b600081519050919050565b600082825260208201905092915050565b6000610f0b82610ee4565b610f158185610eef565b9350610f25818560208601610e06565b610f2e81610abf565b840191505092915050565b6000610f458383610f00565b905092915050565b6000602082019050919050565b6000610f6582610eb8565b610f6f8185610ec3565b935083602082028501610f8185610ed4565b8060005b85811015610fbd5784840389528151610f9e8582610f39565b9450610fa983610f4d565b925060208a01995050600181019050610f85565b50829750879550505050505092915050565b60006020820190508181036000830152610fe98184610f5a565b905092915050565b6000806040838503121561100857611007610a4d565b5b600083013567ffffffffffffffff81111561102657611025610a52565b5b61103285828601610bcd565b925050602083013567ffffffffffffffff81111561105357611052610a52565b5b61105f85828601610c6e565b9150509250929050565b60008115159050919050565b61107e81611069565b82525050565b60006020820190506110996000830184611075565b92915050565b600081905092915050565b60006110b582610ee4565b6110bf818561109f565b93506110cf818560208601610e06565b80840191505092915050565b60006110e782846110aa565b915081905092915050565b600082825260208201905092915050565b7f4f6e6c792070617469656e742063616e206772616e7420616363657373000000600082015250565b6000611139601d836110f2565b915061114482611103565b602082019050919050565b600060208201905081810360008301526111688161112c565b9050919050565b7f496e76616c696420617574686f72697a65642061646472657373000000000000600082015250565b60006111a5601a836110f2565b91506111b08261116f565b602082019050919050565b600060208201905081810360008301526111d481611198565b9050919050565b7f496e76616c696420656e63727970746564206b65792073686172650000000000600082015250565b6000611211601b836110f2565b915061121c826111db565b602082019050919050565b6000602082019050818103600083015261124081611204565b9050919050565b7f4e487b7100000000000000000000000000000000000000000000000000000000600052602260045260246000fd5b6000600282049050600182168061128e57607f821691505b6020821081036112a1576112a0611247565b5b50919050565b60008190508160005260206000209050919050565b60006020601f8301049050919050565b600082821b905092915050565b6000600883026113097fffffffffffffffffffffffffffffffffffffffffffffffffffffffffffffffff826112cc565b61131386836112cc565b95508019841693508086168417925050509392505050565b6000819050919050565b600061135061134b6113468461132b565b610d27565b61132b565b9050919050565b6000819050919050565b61136a83611335565b61137e61137682611357565b8484546112d9565b825550505050565b600090565b611393611386565b61139e818484611361565b505050565b5b818110156113c2576113b760008261138b565b6001810190506113a4565b5050565b601f821115611407576113d8816112a7565b6113e1846112bc565b810160208510156113f0578190505b6114046113fc856112bc565b8301826113a3565b50505b505050565b600082821c905092915050565b600061142a6000198460080261140c565b1980831691505092915050565b60006114438383611419565b9150826002028217905092915050565b61145c82610dea565b67ffffffffffffffff81111561147557611474610ad0565b5b61147f8254611276565b61148a8282856113c6565b600060209050601f8311600181146114bd57600084156114ab578287015190505b6114b58582611437565b86555061151d565b601f1984166114cb866112a7565b60005b828110156114f3578489015182556001820191506020850194506020810190506114ce565b86831015611510578489015161150c601f891682611419565b8355505b6001600288020188555050505b505050505050565b600061153082610ee4565b61153a81856110f2565b935061154a818560208601610e06565b61155381610abf565b840191505092915050565b600060208201905081810360008301526115788184611525565b905092915050565b7f496e76616c696420434944000000000000000000000000000000000000000000600082015250565b60006115b6600b836110f2565b91506115c182611580565b602082019050919050565b600060208201905081810360008301526115e5816115a9565b9050919050565b7f4e6f2061636365737320746f2074686973207265636f72640000000000000000600082015250565b60006116226018836110f2565b915061162d826115ec565b602082019050919050565b6000602082019050818103600083015261165181611615565b9050919050565b61166181610a77565b82525050565b600060208201905061167c6000830184611658565b92915050565b61168b81611069565b811461169657600080fd5b50565b6000815190506116a881611682565b92915050565b6116b78161132b565b81146116c257600080fd5b50565b6000815190506116d4816116ae565b92915050565b60006116ed6116e884610b4b565b610b30565b90508281526020810184848401111561170957611708610aba565b5b611714848285610e06565b509392505050565b600082601f83011261173157611730610ab5565b5b81516117418482602086016116da565b91505092915050565b60008060006060848603121561176357611762610a4d565b5b600061177186828701611699565b9350506020611782868287016116c5565b925050604084015167ffffffffffffffff8111156117a3576117a2610a52565b5b6117af8682870161171c565b9150509250925092565b7f436f6e73656e74206e6f74207369676e65640000000000000000000000000000600082015250565b60006117ef6012836110f2565b91506117fa826117b9565b602082019050919050565b6000602082019050818103600083015261181e816117e2565b9050919050565b7f496e76616c696420495046532043494400000000000000000000000000000000600082015250565b600061185b6010836110f2565b915061186682611825565b602082019050919050565b6000602082019050818103600083015261188a8161184e565b9050919050565b7f4d7573742070726f766964652073656c662d656e63727970746564206b65792060008201527f7368617265000000000000000000000000000000000000000000000000000000602082015250565b60006118ed6025836110f2565b91506118f882611891565b604082019050919050565b6000602082019050818103600083015261191c816118e0565b9050919050565b60008190508160005260206000209050919050565b601f8211156119795761194a81611923565b611953846112bc565b81016020851015611962578190505b61197661196e856112bc565b8301826113a3565b50505b505050565b61198782610ee4565b67ffffffffffffffff8111156119a05761199f610ad0565b5b6119aa8254611276565b6119b5828285611938565b600060209050601f8311600181146119e857600084156119d6578287015190505b6119e08582611437565b865550611a48565b601f1984166119f686611923565b60005b82811015611a1e578489015182556001820191506020850194506020810190506119f9565b86831015611a3b5784890151611a37601f891682611419565b8355505b6001600288020188555050505b505050505050565b611a598161132b565b82525050565b6000604082019050611a746000830185611a50565b8181036020830152611a868184611525565b9050939250505056fea26469706673582212207fc300d5616252e09a9ac34d90da194dbb8fd3856bae184932d6ad8bc9a1f94e64736f6c634300081c0033",
  "linkReferences": {},
  "deployedLinkReferences": {},
  "immutableReferences": {},
  "inputSourceName": "project/contracts/MedicalRecords.sol",
  "buildInfoId": "solc-0_8_28-7faca43e69e8c58f8729e12af30de78c73806a0c"
}